{
  "_format": "hh-sol-artifact-1",
  "contractName": "CurrentCost",
  "sourceName": "contracts/platform/bondage/currentCost/CurrentCost.sol",
  "abi": [
    {
      "constant": true,
      "inputs": [
        {
          "name": "oracleAddress",
          "type": "address"
        },
        {
          "name": "endpoint",
          "type": "bytes32"
        },
        {
          "name": "start",
          "type": "uint256"
        },
        {
          "name": "nDots",
          "type": "uint256"
        }
      ],
      "name": "_costOfNDots",
      "outputs": [
        {
          "name": "cost",
          "type": "uint256"
        }
      ],
      "payable": false,
      "stateMutability": "view",
      "type": "function"
    },
    {
      "constant": false,
      "inputs": [],
      "name": "updateDependencies",
      "outputs": [],
      "payable": false,
      "stateMutability": "nonpayable",
      "type": "function"
    },
    {
      "constant": true,
      "inputs": [],
      "name": "owner",
      "outputs": [
        {
          "name": "",
          "type": "address"
        }
      ],
      "payable": false,
      "stateMutability": "view",
      "type": "function"
    },
    {
      "constant": false,
      "inputs": [],
      "name": "selfDestruct",
      "outputs": [],
      "payable": false,
      "stateMutability": "nonpayable",
      "type": "function"
    },
    {
      "constant": true,
      "inputs": [
        {
          "name": "oracleAddress",
          "type": "address"
        },
        {
          "name": "endpoint",
          "type": "bytes32"
        }
      ],
      "name": "_dotLimit",
      "outputs": [
        {
          "name": "",
          "type": "uint256"
        }
      ],
      "payable": false,
      "stateMutability": "view",
      "type": "function"
    },
    {
      "constant": true,
      "inputs": [
        {
          "name": "oracleAddress",
          "type": "address"
        },
        {
          "name": "endpoint",
          "type": "bytes32"
        },
        {
          "name": "start",
          "type": "uint256"
        }
      ],
      "name": "_currentCostOfDot",
      "outputs": [
        {
          "name": "cost",
          "type": "uint256"
        }
      ],
      "payable": false,
      "stateMutability": "view",
      "type": "function"
    },
    {
      "constant": false,
      "inputs": [
        {
          "name": "newOwner",
          "type": "address"
        }
      ],
      "name": "transferOwnership",
      "outputs": [],
      "payable": false,
      "stateMutability": "nonpayable",
      "type": "function"
    },
    {
      "inputs": [
        {
          "name": "c",
          "type": "address"
        }
      ],
      "payable": false,
      "stateMutability": "nonpayable",
      "type": "constructor"
    },
    {
      "anonymous": false,
      "inputs": [
        {
          "indexed": true,
          "name": "previousOwner",
          "type": "address"
        },
        {
          "indexed": true,
          "name": "newOwner",
          "type": "address"
        }
      ],
      "name": "OwnershipTransferred",
      "type": "event"
    }
  ],
  "bytecode": "0x608060405234801561001057600080fd5b506040516020806113db8339810180604052602081101561003057600080fd5b810190808051906020019092919050505080336000806101000a81548173ffffffffffffffffffffffffffffffffffffffff021916908373ffffffffffffffffffffffffffffffffffffffff16021790555080600160006101000a81548173ffffffffffffffffffffffffffffffffffffffff021916908373ffffffffffffffffffffffffffffffffffffffff16021790555080600260006101000a81548173ffffffffffffffffffffffffffffffffffffffff021916908373ffffffffffffffffffffffffffffffffffffffff1602179055505061011c610122640100000000026401000000009004565b5061025f565b600260009054906101000a900473ffffffffffffffffffffffffffffffffffffffff1673ffffffffffffffffffffffffffffffffffffffff1663358177736040518163ffffffff167c01000000000000000000000000000000000000000000000000000000000281526004018080602001828103825260088152602001807f524547495354525900000000000000000000000000000000000000000000000081525060200191505060206040518083038186803b1580156101e257600080fd5b505afa1580156101f6573d6000803e3d6000fd5b505050506040513d602081101561020c57600080fd5b8101908080519060200190929190505050600360006101000a81548173ffffffffffffffffffffffffffffffffffffffff021916908373ffffffffffffffffffffffffffffffffffffffff160217905550565b61116d8061026e6000396000f3fe60806040526004361061007d576000357c010000000000000000000000000000000000000000000000000000000090048063197d66d5146100825780636e5ecdff146101055780638da5cb5b1461011c5780639cb8a26a14610173578063c1ca69c41461018a578063ecca1fad146101f9578063f2fde38b14610272575b600080fd5b34801561008e57600080fd5b506100ef600480360360808110156100a557600080fd5b81019080803573ffffffffffffffffffffffffffffffffffffffff1690602001909291908035906020019092919080359060200190929190803590602001909291905050506102c3565b6040518082815260200191505060405180910390f35b34801561011157600080fd5b5061011a61060c565b005b34801561012857600080fd5b506101316106db565b604051808273ffffffffffffffffffffffffffffffffffffffff1673ffffffffffffffffffffffffffffffffffffffff16815260200191505060405180910390f35b34801561017f57600080fd5b50610188610700565b005b34801561019657600080fd5b506101e3600480360360408110156101ad57600080fd5b81019080803573ffffffffffffffffffffffffffffffffffffffff16906020019092919080359060200190929190505050610795565b6040518082815260200191505060405180910390f35b34801561020557600080fd5b5061025c6004803603606081101561021c57600080fd5b81019080803573ffffffffffffffffffffffffffffffffffffffff1690602001909291908035906020019092919080359060200190929190505050610a47565b6040518082815260200191505060405180910390f35b34801561027e57600080fd5b506102c16004803603602081101561029557600080fd5b81019080803573ffffffffffffffffffffffffffffffffffffffff169060200190929190505050610a5f565b005b600080600360009054906101000a900473ffffffffffffffffffffffffffffffffffffffff1673ffffffffffffffffffffffffffffffffffffffff166387cd29a487876040518363ffffffff167c0100000000000000000000000000000000000000000000000000000000028152600401808373ffffffffffffffffffffffffffffffffffffffff1673ffffffffffffffffffffffffffffffffffffffff1681526020018281526020019250505060206040518083038186803b15801561038957600080fd5b505afa15801561039d573d6000803e3d6000fd5b505050506040513d60208110156103b357600080fd5b810190808051906020019092919050505090506060816040519080825280602002602001820160405280156103f75781602001602082028038833980820191505090505b509050600360009054906101000a900473ffffffffffffffffffffffffffffffffffffffff1673ffffffffffffffffffffffffffffffffffffffff16632316a9ff88886040518363ffffffff167c0100000000000000000000000000000000000000000000000000000000028152600401808373ffffffffffffffffffffffffffffffffffffffff1673ffffffffffffffffffffffffffffffffffffffff1681526020018281526020019250505060006040518083038186803b1580156104bd57600080fd5b505afa1580156104d1573d6000803e3d6000fd5b505050506040513d6000823e3d601f19601f8201168201806040525060208110156104fb57600080fd5b81019080805164010000000081111561051357600080fd5b8281019050602081018481111561052957600080fd5b815185602082028301116401000000008211171561054657600080fd5b50509291905050509050600061055d828787610bb4565b9050600081121515156105fe576040517f08c379a00000000000000000000000000000000000000000000000000000000081526004018080602001828103825260268152602001807f4572726f723a20436f7374206f6620646f74732063616e6e6f74206265206e6581526020017f676174697665000000000000000000000000000000000000000000000000000081525060400191505060405180910390fd5b809350505050949350505050565b600160009054906101000a900473ffffffffffffffffffffffffffffffffffffffff1673ffffffffffffffffffffffffffffffffffffffff163373ffffffffffffffffffffffffffffffffffffffff161415156106d1576040517f08c379a00000000000000000000000000000000000000000000000000000000081526004018080602001828103825260208152602001807f4572726f723a20436f6f7264696e61746f72204f6e6c792046756e6374696f6e81525060200191505060405180910390fd5b6106d9610d15565b565b6000809054906101000a900473ffffffffffffffffffffffffffffffffffffffff1681565b6000809054906101000a900473ffffffffffffffffffffffffffffffffffffffff1673ffffffffffffffffffffffffffffffffffffffff163373ffffffffffffffffffffffffffffffffffffffff1614151561075b57600080fd5b6000809054906101000a900473ffffffffffffffffffffffffffffffffffffffff1673ffffffffffffffffffffffffffffffffffffffff16ff5b600080600360009054906101000a900473ffffffffffffffffffffffffffffffffffffffff1673ffffffffffffffffffffffffffffffffffffffff166387cd29a485856040518363ffffffff167c0100000000000000000000000000000000000000000000000000000000028152600401808373ffffffffffffffffffffffffffffffffffffffff1673ffffffffffffffffffffffffffffffffffffffff1681526020018281526020019250505060206040518083038186803b15801561085b57600080fd5b505afa15801561086f573d6000803e3d6000fd5b505050506040513d602081101561088557600080fd5b810190808051906020019092919050505090506060816040519080825280602002602001820160405280156108c95781602001602082028038833980820191505090505b509050600360009054906101000a900473ffffffffffffffffffffffffffffffffffffffff1673ffffffffffffffffffffffffffffffffffffffff16632316a9ff86866040518363ffffffff167c0100000000000000000000000000000000000000000000000000000000028152600401808373ffffffffffffffffffffffffffffffffffffffff1673ffffffffffffffffffffffffffffffffffffffff1681526020018281526020019250505060006040518083038186803b15801561098f57600080fd5b505afa1580156109a3573d6000803e3d6000fd5b505050506040513d6000823e3d601f19601f8201168201806040525060208110156109cd57600080fd5b8101908080516401000000008111156109e557600080fd5b828101905060208101848111156109fb57600080fd5b8151856020820283011164010000000082111715610a1857600080fd5b505092919050505090508060018303815181101515610a3357fe5b906020019060200201519250505092915050565b6000610a5684848460006102c3565b90509392505050565b6000809054906101000a900473ffffffffffffffffffffffffffffffffffffffff1673ffffffffffffffffffffffffffffffffffffffff163373ffffffffffffffffffffffffffffffffffffffff16141515610aba57600080fd5b600073ffffffffffffffffffffffffffffffffffffffff168173ffffffffffffffffffffffffffffffffffffffff1614151515610af657600080fd5b8073ffffffffffffffffffffffffffffffffffffffff166000809054906101000a900473ffffffffffffffffffffffffffffffffffffffff1673ffffffffffffffffffffffffffffffffffffffff167f8be0079c531659141344cd1fd0a4f28419497f9722a3daafe3b4186f6b6457e060405160405180910390a3806000806101000a81548173ffffffffffffffffffffffffffffffffffffffff021916908373ffffffffffffffffffffffffffffffffffffffff16021790555050565b600080600090506000809050856001875103815181101515610bd257fe5b9060200190602002015184860111151515610c55576040517f08c379a00000000000000000000000000000000000000000000000000000000081526004018080602001828103825260208152602001807f4572726f723a2046756e6374696f6e206e6f7420696e20646f74206c696d697481525060200191505060405180910390fd5b5b8551821015610d0b5760008683815181101515610c6f57fe5b906020019060200201519050600087600183860101815181101515610c9057fe5b9060200190602002015190506000600283860101905081881115610cb957809450505050610c56565b610cd789868a858b8d0111610cce578a610cd2565b8b86035b610e52565b8401935081878901111515610cf3578395505050505050610d0e565b60018883030187039650819750809450505050610c56565b50505b9392505050565b600260009054906101000a900473ffffffffffffffffffffffffffffffffffffffff1673ffffffffffffffffffffffffffffffffffffffff1663358177736040518163ffffffff167c01000000000000000000000000000000000000000000000000000000000281526004018080602001828103825260088152602001807f524547495354525900000000000000000000000000000000000000000000000081525060200191505060206040518083038186803b158015610dd557600080fd5b505afa158015610de9573d6000803e3d6000fd5b505050506040513d6020811015610dff57600080fd5b8101908080519060200190929190505050600360006101000a81548173ffffffffffffffffffffffffffffffffffffffff021916908373ffffffffffffffffffffffffffffffffffffffff160217905550565b6000806000905060008686815181101515610e6957fe5b90602001906020020151905060006001870190506000828201905060008290505b81811015610eda57610ea160018903848303610f89565b610eaf888a01858403610f89565b038a82815181101515610ebe57fe5b9060200190602002015102850194508080600101915050610e8a565b5060008412151515610f7a576040517f08c379a00000000000000000000000000000000000000000000000000000000081526004018080602001828103825260258152602001807f4572726f723a20436f7374206d7573742062652067726561746572207468616e81526020017f207a65726f00000000000000000000000000000000000000000000000000000081525060400191505060405180910390fd5b83945050505050949350505050565b600060068211158015610f9d575060008210155b1515611011576040517f08c379a000000000000000000000000000000000000000000000000000000000815260040180806020018281038252601e8152602001807f4572726f723a20496e76616c696420506965636577697365204c6f676963000081525060200191505060405180910390fd5b60008214156110225782905061113b565b600182141561104457600260018401840281151561103c57fe5b04905061113b565b600282141561106e576006600184600202016001850185020281151561106657fe5b04905061113b565b60038214156110925760028060018501850281151561108957fe5b040a905061113b565b60048214156110cb57601e60018460030285866003020201036001856002020160018601860202028115156110c357fe5b04905061113b565b60058214156110f4576001836002026002850a600202010360026001850185020a02905061113b565b600682141561113657602a6001846003026003860a6006026004870a60030201030160018560020201600186018602020281151561112e57fe5b04905061113b565b600090505b9291505056fea165627a7a72305820cb1ea256d81eff166083d4f7122e0e388ba3492f043644eaafbf77c99ee04fee0029",
  "linkReferences": {},
  "deployedLinkReferences": {}
}