{
  "_format": "hh-sol-artifact-1",
  "contractName": "TestProvider",
  "sourceName": "contracts/lib/platform/TestContracts.sol",
  "abi": [
    {
      "constant": true,
      "inputs": [],
      "name": "spec2",
      "outputs": [
        {
          "name": "",
          "type": "bytes32"
        }
      ],
      "payable": false,
      "stateMutability": "view",
      "type": "function"
    },
    {
      "constant": true,
      "inputs": [],
      "name": "spec1",
      "outputs": [
        {
          "name": "",
          "type": "bytes32"
        }
      ],
      "payable": false,
      "stateMutability": "view",
      "type": "function"
    },
    {
      "constant": true,
      "inputs": [],
      "name": "spec3",
      "outputs": [
        {
          "name": "",
          "type": "bytes32"
        }
      ],
      "payable": false,
      "stateMutability": "view",
      "type": "function"
    },
    {
      "constant": true,
      "inputs": [],
      "name": "spec4",
      "outputs": [
        {
          "name": "",
          "type": "bytes32"
        }
      ],
      "payable": false,
      "stateMutability": "view",
      "type": "function"
    },
    {
      "constant": false,
      "inputs": [
        {
          "name": "id",
          "type": "uint256"
        },
        {
          "name": "userQuery",
          "type": "string"
        },
        {
          "name": "endpoint",
          "type": "bytes32"
        },
        {
          "name": "endpointParams",
          "type": "bytes32[]"
        },
        {
          "name": "onchainSubscriber",
          "type": "bool"
        }
      ],
      "name": "receive",
      "outputs": [],
      "payable": false,
      "stateMutability": "nonpayable",
      "type": "function"
    },
    {
      "inputs": [
        {
          "name": "registryAddress",
          "type": "address"
        },
        {
          "name": "isBad",
          "type": "bool"
        }
      ],
      "payable": false,
      "stateMutability": "nonpayable",
      "type": "constructor"
    },
    {
      "anonymous": false,
      "inputs": [
        {
          "indexed": false,
          "name": "query",
          "type": "string"
        },
        {
          "indexed": false,
          "name": "endpoint",
          "type": "bytes32"
        },
        {
          "indexed": false,
          "name": "params",
          "type": "bytes32[]"
        }
      ],
      "name": "RecievedQuery",
      "type": "event"
    },
    {
      "anonymous": false,
      "inputs": [
        {
          "indexed": false,
          "name": "res",
          "type": "uint256"
        },
        {
          "indexed": false,
          "name": "b",
          "type": "bytes32"
        },
        {
          "indexed": false,
          "name": "s",
          "type": "string"
        }
      ],
      "name": "TEST",
      "type": "event"
    }
  ],
  "bytecode": "0x60806040527f48656c6c6f3f00000000000000000000000000000000000000000000000000006000557f52657665727365000000000000000000000000000000000000000000000000006001557f41646400000000000000000000000000000000000000000000000000000000006002557f446f75626c65000000000000000000000000000000000000000000000000000060035560a060405190810160405280600363ffffffff168152602001600063ffffffff168152602001600063ffffffff168152602001600263ffffffff168152602001633b9aca0063ffffffff168152506005906005620000f492919062000897565b503480156200010257600080fd5b5060405160408062001836833981018060405260408110156200012457600080fd5b81019080805190602001909291908051906020019092919050505081600660006101000a81548173ffffffffffffffffffffffffffffffffffffffff021916908373ffffffffffffffffffffffffffffffffffffffff16021790555080600460006101000a81548160ff02191690831515021790555060007f54657374436f6e74726163740000000000000000000000000000000000000000905060606002604051908082528060200260200182016040528015620001f25781602001602082028038833980820191505090505b5090507f70310000000000000000000000000000000000000000000000000000000000008160008151811015156200022657fe5b90602001906020020181815250507f70320000000000000000000000000000000000000000000000000000000000008160018151811015156200026557fe5b9060200190602002018181525050600660009054906101000a900473ffffffffffffffffffffffffffffffffffffffff1673ffffffffffffffffffffffffffffffffffffffff1663af87c833613039846040518363ffffffff167c01000000000000000000000000000000000000000000000000000000000281526004018083815260200182815260200192505050602060405180830381600087803b1580156200030f57600080fd5b505af115801562000324573d6000803e3d6000fd5b505050506040513d60208110156200033b57600080fd5b810190808051906020019092919050505050600660009054906101000a900473ffffffffffffffffffffffffffffffffffffffff1673ffffffffffffffffffffffffffffffffffffffff1663238b3aed600054600560006040518463ffffffff167c010000000000000000000000000000000000000000000000000000000002815260040180848152602001806020018373ffffffffffffffffffffffffffffffffffffffff1673ffffffffffffffffffffffffffffffffffffffff16815260200182810382528481815481526020019150805480156200043c57602002820191906000526020600020905b81548152602001906001019080831162000427575b5050945050505050602060405180830381600087803b1580156200045f57600080fd5b505af115801562000474573d6000803e3d6000fd5b505050506040513d60208110156200048b57600080fd5b810190808051906020019092919050505050600660009054906101000a900473ffffffffffffffffffffffffffffffffffffffff1673ffffffffffffffffffffffffffffffffffffffff1663238b3aed600154600560006040518463ffffffff167c010000000000000000000000000000000000000000000000000000000002815260040180848152602001806020018373ffffffffffffffffffffffffffffffffffffffff1673ffffffffffffffffffffffffffffffffffffffff16815260200182810382528481815481526020019150805480156200058c57602002820191906000526020600020905b81548152602001906001019080831162000577575b5050945050505050602060405180830381600087803b158015620005af57600080fd5b505af1158015620005c4573d6000803e3d6000fd5b505050506040513d6020811015620005db57600080fd5b810190808051906020019092919050505050600660009054906101000a900473ffffffffffffffffffffffffffffffffffffffff1673ffffffffffffffffffffffffffffffffffffffff1663238b3aed600254600560006040518463ffffffff167c010000000000000000000000000000000000000000000000000000000002815260040180848152602001806020018373ffffffffffffffffffffffffffffffffffffffff1673ffffffffffffffffffffffffffffffffffffffff1681526020018281038252848181548152602001915080548015620006dc57602002820191906000526020600020905b815481526020019060010190808311620006c7575b5050945050505050602060405180830381600087803b158015620006ff57600080fd5b505af115801562000714573d6000803e3d6000fd5b505050506040513d60208110156200072b57600080fd5b810190808051906020019092919050505050600660009054906101000a900473ffffffffffffffffffffffffffffffffffffffff1673ffffffffffffffffffffffffffffffffffffffff1663238b3aed600354600560006040518463ffffffff167c010000000000000000000000000000000000000000000000000000000002815260040180848152602001806020018373ffffffffffffffffffffffffffffffffffffffff1673ffffffffffffffffffffffffffffffffffffffff16815260200182810382528481815481526020019150805480156200082c57602002820191906000526020600020905b81548152602001906001019080831162000817575b5050945050505050602060405180830381600087803b1580156200084f57600080fd5b505af115801562000864573d6000803e3d6000fd5b505050506040513d60208110156200087b57600080fd5b8101908080519060200190929190505050505050505062000919565b828054828255906000526020600020908101928215620008de579160200282015b82811115620008dd578251829063ffffffff16905591602001919060010190620008b8565b5b509050620008ed9190620008f1565b5090565b6200091691905b8082111562000912576000816000905550600101620008f8565b5090565b90565b610f0d80620009296000396000f3fe608060405260043610610067576000357c0100000000000000000000000000000000000000000000000000000000900480632ee2742e1461006c57806348cf129a146100975780637ff94b62146100c2578063c5d7a725146100ed578063de26158314610118575b600080fd5b34801561007857600080fd5b50610081610213565b6040518082815260200191505060405180910390f35b3480156100a357600080fd5b506100ac610219565b6040518082815260200191505060405180910390f35b3480156100ce57600080fd5b506100d761021f565b6040518082815260200191505060405180910390f35b3480156100f957600080fd5b50610102610225565b6040518082815260200191505060405180910390f35b34801561012457600080fd5b50610211600480360360a081101561013b57600080fd5b81019080803590602001909291908035906020019064010000000081111561016257600080fd5b82018360208201111561017457600080fd5b8035906020019184600183028401116401000000008311171561019657600080fd5b909192939192939080359060200190929190803590602001906401000000008111156101c157600080fd5b8201836020820111156101d357600080fd5b803590602001918460208302840111640100000000831117156101f557600080fd5b909192939192939080351515906020019092919050505061022b565b005b60015481565b60005481565b60025481565b60035481565b7fb1d30540f0019c1e94a292da7a6f164844c5d2e3dee75e0b3a6a66e4e9a4e15386868686866040518080602001858152602001806020018381038352888882818152602001925080828437600081840152601f19601f8201169050808301925050508381038252858582818152602001925060200280828437600081840152601f19601f82011690508083019250505097505050505050505060405180910390a1600460009054906101000a900460ff16156102e7576106a6565b600084905081156106a4576000816040516020018082815260200191505060405160208183030381529060405280519060200120905060005460405160200180828152602001915050604051602081830303815290604052805190602001208114156103e2576103dd8989898080601f016020809104026020016040519081016040528093929190818152602001838380828437600081840152601f19601f82011690508083019250505050505050878780806020026020016040519081016040528093929190818152602001838360200280828437600081840152601f19601f820116905080830192505050505050506106af565b6106a2565b60015460405160200180828152602001915050604051602081830303815290604052805190602001208114156104a7576104a28989898080601f016020809104026020016040519081016040528093929190818152602001838380828437600081840152601f19601f82011690508083019250505050505050878780806020026020016040519081016040528093929190818152602001838360200280828437600081840152601f19601f82011690508083019250505050505050610806565b6106a1565b600254604051602001808281526020019150506040516020818303038152906040528051906020012081141561056c576105678989898080601f016020809104026020016040519081016040528093929190818152602001838380828437600081840152601f19601f82011690508083019250505050505050878780806020026020016040519081016040528093929190818152602001838360200280828437600081840152601f19601f82011690508083019250505050505050610931565b6106a0565b60035460405160200180828152602001915050604051602081830303815290604052805190602001208114156106315761062c8989898080601f016020809104026020016040519081016040528093929190818152602001838380828437600081840152601f19601f82011690508083019250505050505050878780806020026020016040519081016040528093929190818152602001838360200280828437600081840152601f19601f82011690508083019250505050505050610aca565b61069f565b6040517f08c379a00000000000000000000000000000000000000000000000000000000081526004018080602001828103825260108152602001807f496e76616c696420656e64706f696e740000000000000000000000000000000081525060200191505060405180910390fd5b5b5b5b505b505b50505050505050565b610714606060405190810160405280602181526020017f726573706f6e64696e6720746f20636f6e74726163742061742061646472657381526020017f7300000000000000000000000000000000000000000000000000000000000000815250610bec565b61071d33610cea565b3373ffffffffffffffffffffffffffffffffffffffff16636843581c846040518263ffffffff167c010000000000000000000000000000000000000000000000000000000002815260040180828152602001806020018281038252600b8152602001807f48656c6c6f20576f726c6400000000000000000000000000000000000000000081525060200192505050602060405180830381600087803b1580156107c557600080fd5b505af11580156107d9573d6000803e3d6000fd5b505050506040513d60208110156107ef57600080fd5b810190808051906020019092919050505050505050565b606061081183610daf565b90503373ffffffffffffffffffffffffffffffffffffffff16636843581c85836040518363ffffffff167c01000000000000000000000000000000000000000000000000000000000281526004018083815260200180602001828103825283818151815260200191508051906020019080838360005b838110156108a2578082015181840152602081019050610887565b50505050905090810190601f1680156108cf5780820380516001836020036101000a031916815260200191505b509350505050602060405180830381600087803b1580156108ef57600080fd5b505af1158015610903573d6000803e3d6000fd5b505050506040513d602081101561091957600080fd5b81019080805190602001909291905050505050505050565b600080905060008090505b8251811015610978576000838281518110151561095557fe5b90602001906020020151600190049050808301925050808060010191505061093c565b50606060016040519080825280602002602001820160405280156109ab5781602001602082028038833980820191505090505b509050816001028160008151811015156109c157fe5b90602001906020020181815250503373ffffffffffffffffffffffffffffffffffffffff16630cbe69a186836040518363ffffffff167c01000000000000000000000000000000000000000000000000000000000281526004018083815260200180602001828103825283818151815260200191508051906020019060200280838360005b83811015610a61578082015181840152602081019050610a46565b505050509050019350505050602060405180830381600087803b158015610a8757600080fd5b505af1158015610a9b573d6000803e3d6000fd5b505050506040513d6020811015610ab157600080fd5b8101908080519060200190929190505050505050505050565b3373ffffffffffffffffffffffffffffffffffffffff1663fedea288846040518263ffffffff167c0100000000000000000000000000000000000000000000000000000000028152600401808281526020018060200180602001838103835260058152602001807f48656c6c6f000000000000000000000000000000000000000000000000000000815250602001838103825260058152602001807f576f726c640000000000000000000000000000000000000000000000000000008152506020019350505050602060405180830381600087803b158015610bab57600080fd5b505af1158015610bbf573d6000803e3d6000fd5b505050506040513d6020811015610bd557600080fd5b810190808051906020019092919050505050505050565b610ce7816040516024018080602001828103825283818151815260200191508051906020019080838360005b83811015610c33578082015181840152602081019050610c18565b50505050905090810190601f168015610c605780820380516001836020036101000a031916815260200191505b50925050506040516020818303038152906040527f41304fac000000000000000000000000000000000000000000000000000000007bffffffffffffffffffffffffffffffffffffffffffffffffffffffff19166020820180517bffffffffffffffffffffffffffffffffffffffffffffffffffffffff8381831617835250505050610eb8565b50565b610dac81604051602401808273ffffffffffffffffffffffffffffffffffffffff1673ffffffffffffffffffffffffffffffffffffffff1681526020019150506040516020818303038152906040527f2c2ecbc2000000000000000000000000000000000000000000000000000000007bffffffffffffffffffffffffffffffffffffffffffffffffffffffff19166020820180517bffffffffffffffffffffffffffffffffffffffffffffffffffffffff8381831617835250505050610eb8565b50565b606080829050606081516040519080825280601f01601f191660200182016040528015610deb5781602001600182028038833980820191505090505b509050606081905060008090505b8351811015610eac578381815181101515610e1057fe5b9060200101517f010000000000000000000000000000000000000000000000000000000000000090047f0100000000000000000000000000000000000000000000000000000000000000028260018387510303815181101515610e6f57fe5b9060200101907effffffffffffffffffffffffffffffffffffffffffffffffffffffffffffff1916908160001a9053508080600101915050610df9565b50809350505050919050565b60008151905060006a636f6e736f6c652e6c6f679050602083016000808483855afa505050505056fea165627a7a7230582092ec241c8bbf65da621553f6838d7dced6d156a791fdd5e8363399b10675969d0029",
  "linkReferences": {},
  "deployedLinkReferences": {}
}