{
  "_format": "hh-sol-artifact-1",
  "contractName": "Arbiter",
  "sourceName": "contracts/platform/arbiter/Arbiter.sol",
  "abi": [
    {
      "constant": true,
      "inputs": [
        {
          "name": "providerAddress",
          "type": "address"
        },
        {
          "name": "subscriberAddress",
          "type": "address"
        },
        {
          "name": "endpoint",
          "type": "bytes32"
        }
      ],
      "name": "getBlockStart",
      "outputs": [
        {
          "name": "",
          "type": "uint96"
        }
      ],
      "payable": false,
      "stateMutability": "view",
      "type": "function"
    },
    {
      "constant": true,
      "inputs": [],
      "name": "db",
      "outputs": [
        {
          "name": "",
          "type": "address"
        }
      ],
      "payable": false,
      "stateMutability": "view",
      "type": "function"
    },
    {
      "constant": false,
      "inputs": [
        {
          "name": "providerAddress",
          "type": "address"
        },
        {
          "name": "endpoint",
          "type": "bytes32"
        }
      ],
      "name": "endSubscriptionSubscriber",
      "outputs": [],
      "payable": false,
      "stateMutability": "nonpayable",
      "type": "function"
    },
    {
      "constant": true,
      "inputs": [
        {
          "name": "providerAddress",
          "type": "address"
        },
        {
          "name": "subscriberAddress",
          "type": "address"
        },
        {
          "name": "endpoint",
          "type": "bytes32"
        }
      ],
      "name": "getSubscription",
      "outputs": [
        {
          "name": "dots",
          "type": "uint64"
        },
        {
          "name": "blockStart",
          "type": "uint96"
        },
        {
          "name": "preBlockEnd",
          "type": "uint96"
        }
      ],
      "payable": false,
      "stateMutability": "view",
      "type": "function"
    },
    {
      "constant": false,
      "inputs": [
        {
          "name": "receiver",
          "type": "address"
        },
        {
          "name": "endpoint",
          "type": "bytes32"
        },
        {
          "name": "params",
          "type": "bytes32[]"
        }
      ],
      "name": "passParams",
      "outputs": [],
      "payable": false,
      "stateMutability": "nonpayable",
      "type": "function"
    },
    {
      "constant": false,
      "inputs": [],
      "name": "updateDependencies",
      "outputs": [],
      "payable": false,
      "stateMutability": "nonpayable",
      "type": "function"
    },
    {
      "constant": true,
      "inputs": [],
      "name": "owner",
      "outputs": [
        {
          "name": "",
          "type": "address"
        }
      ],
      "payable": false,
      "stateMutability": "view",
      "type": "function"
    },
    {
      "constant": false,
      "inputs": [
        {
          "name": "providerAddress",
          "type": "address"
        },
        {
          "name": "endpoint",
          "type": "bytes32"
        },
        {
          "name": "endpointParams",
          "type": "bytes32[]"
        },
        {
          "name": "publicKey",
          "type": "uint256"
        },
        {
          "name": "blocks",
          "type": "uint64"
        }
      ],
      "name": "initiateSubscription",
      "outputs": [],
      "payable": false,
      "stateMutability": "nonpayable",
      "type": "function"
    },
    {
      "constant": false,
      "inputs": [],
      "name": "selfDestruct",
      "outputs": [],
      "payable": false,
      "stateMutability": "nonpayable",
      "type": "function"
    },
    {
      "constant": true,
      "inputs": [
        {
          "name": "providerAddress",
          "type": "address"
        },
        {
          "name": "subscriberAddress",
          "type": "address"
        },
        {
          "name": "endpoint",
          "type": "bytes32"
        }
      ],
      "name": "getDots",
      "outputs": [
        {
          "name": "",
          "type": "uint64"
        }
      ],
      "payable": false,
      "stateMutability": "view",
      "type": "function"
    },
    {
      "constant": true,
      "inputs": [],
      "name": "bondageAddress",
      "outputs": [
        {
          "name": "",
          "type": "address"
        }
      ],
      "payable": false,
      "stateMutability": "view",
      "type": "function"
    },
    {
      "constant": true,
      "inputs": [
        {
          "name": "providerAddress",
          "type": "address"
        },
        {
          "name": "subscriberAddress",
          "type": "address"
        },
        {
          "name": "endpoint",
          "type": "bytes32"
        }
      ],
      "name": "getPreBlockEnd",
      "outputs": [
        {
          "name": "",
          "type": "uint96"
        }
      ],
      "payable": false,
      "stateMutability": "view",
      "type": "function"
    },
    {
      "constant": false,
      "inputs": [
        {
          "name": "newOwner",
          "type": "address"
        }
      ],
      "name": "transferOwnership",
      "outputs": [],
      "payable": false,
      "stateMutability": "nonpayable",
      "type": "function"
    },
    {
      "constant": false,
      "inputs": [
        {
          "name": "subscriberAddress",
          "type": "address"
        },
        {
          "name": "endpoint",
          "type": "bytes32"
        }
      ],
      "name": "endSubscriptionProvider",
      "outputs": [],
      "payable": false,
      "stateMutability": "nonpayable",
      "type": "function"
    },
    {
      "inputs": [
        {
          "name": "c",
          "type": "address"
        }
      ],
      "payable": false,
      "stateMutability": "nonpayable",
      "type": "constructor"
    },
    {
      "anonymous": false,
      "inputs": [
        {
          "indexed": true,
          "name": "provider",
          "type": "address"
        },
        {
          "indexed": true,
          "name": "subscriber",
          "type": "address"
        },
        {
          "indexed": false,
          "name": "publicKey",
          "type": "uint256"
        },
        {
          "indexed": true,
          "name": "amount",
          "type": "uint256"
        },
        {
          "indexed": false,
          "name": "endpointParams",
          "type": "bytes32[]"
        },
        {
          "indexed": false,
          "name": "endpoint",
          "type": "bytes32"
        }
      ],
      "name": "DataPurchase",
      "type": "event"
    },
    {
      "anonymous": false,
      "inputs": [
        {
          "indexed": true,
          "name": "provider",
          "type": "address"
        },
        {
          "indexed": true,
          "name": "subscriber",
          "type": "address"
        },
        {
          "indexed": true,
          "name": "terminator",
          "type": "uint8"
        }
      ],
      "name": "DataSubscriptionEnd",
      "type": "event"
    },
    {
      "anonymous": false,
      "inputs": [
        {
          "indexed": true,
          "name": "sender",
          "type": "address"
        },
        {
          "indexed": true,
          "name": "receiver",
          "type": "address"
        },
        {
          "indexed": false,
          "name": "endpoint",
          "type": "bytes32"
        },
        {
          "indexed": false,
          "name": "params",
          "type": "bytes32[]"
        }
      ],
      "name": "ParamsPassed",
      "type": "event"
    },
    {
      "anonymous": false,
      "inputs": [
        {
          "indexed": true,
          "name": "previousOwner",
          "type": "address"
        },
        {
          "indexed": true,
          "name": "newOwner",
          "type": "address"
        }
      ],
      "name": "OwnershipTransferred",
      "type": "event"
    }
  ],
  "bytecode": "0x60806040523480156200001157600080fd5b5060405160208062002c30833981018060405260208110156200003357600080fd5b810190808051906020019092919050505080336000806101000a81548173ffffffffffffffffffffffffffffffffffffffff021916908373ffffffffffffffffffffffffffffffffffffffff16021790555080600160006101000a81548173ffffffffffffffffffffffffffffffffffffffff021916908373ffffffffffffffffffffffffffffffffffffffff16021790555080600260006101000a81548173ffffffffffffffffffffffffffffffffffffffff021916908373ffffffffffffffffffffffffffffffffffffffff160217905550506200012162000128640100000000026401000000009004565b506200040f565b600260009054906101000a900473ffffffffffffffffffffffffffffffffffffffff1673ffffffffffffffffffffffffffffffffffffffff1663358177736040518163ffffffff167c01000000000000000000000000000000000000000000000000000000000281526004018080602001828103825260078152602001807f424f4e444147450000000000000000000000000000000000000000000000000081525060200191505060206040518083038186803b158015620001e957600080fd5b505afa158015620001fe573d6000803e3d6000fd5b505050506040513d60208110156200021557600080fd5b8101908080519060200190929190505050600460006101000a81548173ffffffffffffffffffffffffffffffffffffffff021916908373ffffffffffffffffffffffffffffffffffffffff160217905550600460009054906101000a900473ffffffffffffffffffffffffffffffffffffffff16600360006101000a81548173ffffffffffffffffffffffffffffffffffffffff021916908373ffffffffffffffffffffffffffffffffffffffff1602179055506000600260009054906101000a900473ffffffffffffffffffffffffffffffffffffffff1673ffffffffffffffffffffffffffffffffffffffff1663358177736040518163ffffffff167c01000000000000000000000000000000000000000000000000000000000281526004018080602001828103825260088152602001807f444154414241534500000000000000000000000000000000000000000000000081525060200191505060206040518083038186803b1580156200038c57600080fd5b505afa158015620003a1573d6000803e3d6000fd5b505050506040513d6020811015620003b857600080fd5b8101908080519060200190929190505050905080600560006101000a81548173ffffffffffffffffffffffffffffffffffffffff021916908373ffffffffffffffffffffffffffffffffffffffff16021790555050565b612811806200041f6000396000f3fe6080604052600436106100ca576000357c0100000000000000000000000000000000000000000000000000000000900480633e24a696146100cf5780634d655aff1461017a57806362800bd8146101d15780636c526d851461022c5780636dbe08df146103155780636e5ecdff146104045780638da5cb5b1461041b5780639c87920a146104725780639cb8a26a1461057f578063dbe7436414610596578063e00dbb4114610639578063e87e69fe14610690578063f2fde38b1461073b578063fb8846301461078c575b600080fd5b3480156100db57600080fd5b50610148600480360360608110156100f257600080fd5b81019080803573ffffffffffffffffffffffffffffffffffffffff169060200190929190803573ffffffffffffffffffffffffffffffffffffffff169060200190929190803590602001909291905050506107e7565b60405180826bffffffffffffffffffffffff166bffffffffffffffffffffffff16815260200191505060405180910390f35b34801561018657600080fd5b5061018f6109b8565b604051808273ffffffffffffffffffffffffffffffffffffffff1673ffffffffffffffffffffffffffffffffffffffff16815260200191505060405180910390f35b3480156101dd57600080fd5b5061022a600480360360408110156101f457600080fd5b81019080803573ffffffffffffffffffffffffffffffffffffffff169060200190929190803590602001909291905050506109de565b005b34801561023857600080fd5b506102a56004803603606081101561024f57600080fd5b81019080803573ffffffffffffffffffffffffffffffffffffffff169060200190929190803573ffffffffffffffffffffffffffffffffffffffff16906020019092919080359060200190929190505050610a59565b604051808467ffffffffffffffff1667ffffffffffffffff168152602001836bffffffffffffffffffffffff166bffffffffffffffffffffffff168152602001826bffffffffffffffffffffffff166bffffffffffffffffffffffff168152602001935050505060405180910390f35b34801561032157600080fd5b506104026004803603606081101561033857600080fd5b81019080803573ffffffffffffffffffffffffffffffffffffffff169060200190929190803590602001909291908035906020019064010000000081111561037f57600080fd5b82018360208201111561039157600080fd5b803590602001918460208302840111640100000000831117156103b357600080fd5b919080806020026020016040519081016040528093929190818152602001838360200280828437600081840152601f19601f820116905080830192505050505050509192919290505050610a8e565b005b34801561041057600080fd5b50610419610b41565b005b34801561042757600080fd5b50610430610c10565b604051808273ffffffffffffffffffffffffffffffffffffffff1673ffffffffffffffffffffffffffffffffffffffff16815260200191505060405180910390f35b34801561047e57600080fd5b5061057d600480360360a081101561049557600080fd5b81019080803573ffffffffffffffffffffffffffffffffffffffff16906020019092919080359060200190929190803590602001906401000000008111156104dc57600080fd5b8201836020820111156104ee57600080fd5b8035906020019184602083028401116401000000008311171561051057600080fd5b919080806020026020016040519081016040528093929190818152602001838360200280828437600081840152601f19601f82011690508083019250505050505050919291929080359060200190929190803567ffffffffffffffff169060200190929190505050610c35565b005b34801561058b57600080fd5b50610594610fb8565b005b3480156105a257600080fd5b5061060f600480360360608110156105b957600080fd5b81019080803573ffffffffffffffffffffffffffffffffffffffff169060200190929190803573ffffffffffffffffffffffffffffffffffffffff1690602001909291908035906020019092919050505061104d565b604051808267ffffffffffffffff1667ffffffffffffffff16815260200191505060405180910390f35b34801561064557600080fd5b5061064e61121e565b604051808273ffffffffffffffffffffffffffffffffffffffff1673ffffffffffffffffffffffffffffffffffffffff16815260200191505060405180910390f35b34801561069c57600080fd5b50610709600480360360608110156106b357600080fd5b81019080803573ffffffffffffffffffffffffffffffffffffffff169060200190929190803573ffffffffffffffffffffffffffffffffffffffff16906020019092919080359060200190929190505050611244565b60405180826bffffffffffffffffffffffff166bffffffffffffffffffffffff16815260200191505060405180910390f35b34801561074757600080fd5b5061078a6004803603602081101561075e57600080fd5b81019080803573ffffffffffffffffffffffffffffffffffffffff169060200190929190505050611415565b005b34801561079857600080fd5b506107e5600480360360408110156107af57600080fd5b81019080803573ffffffffffffffffffffffffffffffffffffffff1690602001909291908035906020019092919050505061156a565b005b6000600560009054906101000a900473ffffffffffffffffffffffffffffffffffffffff1673ffffffffffffffffffffffffffffffffffffffff16632ecb0d6485858560405160200180807f737562736372697074696f6e7300000000000000000000000000000000000000815250600d018473ffffffffffffffffffffffffffffffffffffffff1673ffffffffffffffffffffffffffffffffffffffff166c010000000000000000000000000281526014018373ffffffffffffffffffffffffffffffffffffffff1673ffffffffffffffffffffffffffffffffffffffff166c01000000000000000000000000028152601401828152602001807f626c6f636b537461727400000000000000000000000000000000000000000000815250600a019350505050604051602081830303815290604052805190602001206040518263ffffffff167c01000000000000000000000000000000000000000000000000000000000281526004018082815260200191505060206040518083038186803b15801561097457600080fd5b505afa158015610988573d6000803e3d6000fd5b505050506040513d602081101561099e57600080fd5b810190808051906020019092919050505090509392505050565b600560009054906101000a900473ffffffffffffffffffffffffffffffffffffffff1681565b6109e98233836115e6565b15610a55576001808111156109fa57fe5b3373ffffffffffffffffffffffffffffffffffffffff168373ffffffffffffffffffffffffffffffffffffffff167fe27dcf9b3b50e7d3af96f88c64ebd7307cdef3359182881bfe7210b42433a44960405160405180910390a45b5050565b6000806000610a6986868661104d565b610a748787876107e7565b610a7f888888611244565b92509250925093509350939050565b8273ffffffffffffffffffffffffffffffffffffffff163373ffffffffffffffffffffffffffffffffffffffff167fd31e849abbddf4d7669b530a73ab91262191fb280906f73316d4830f67f10d7d84846040518083815260200180602001828103825283818151815260200191508051906020019060200280838360005b83811015610b28578082015181840152602081019050610b0d565b50505050905001935050505060405180910390a3505050565b600160009054906101000a900473ffffffffffffffffffffffffffffffffffffffff1673ffffffffffffffffffffffffffffffffffffffff163373ffffffffffffffffffffffffffffffffffffffff16141515610c06576040517f08c379a00000000000000000000000000000000000000000000000000000000081526004018080602001828103825260208152602001807f4572726f723a20436f6f7264696e61746f72204f6e6c792046756e6374696f6e81525060200191505060405180910390fd5b610c0e611ac0565b565b6000809054906101000a900473ffffffffffffffffffffffffffffffffffffffff1681565b60008167ffffffffffffffff16111515610cdd576040517f08c379a00000000000000000000000000000000000000000000000000000000081526004018080602001828103825260218152602001807f4572726f723a204d757374206265206174206c65617374206f6e6520626c6f6381526020017f6b0000000000000000000000000000000000000000000000000000000000000081525060400191505060405180910390fd5b6000610cea86338761104d565b67ffffffffffffffff16141515610d8f576040517f08c379a00000000000000000000000000000000000000000000000000000000081526004018080602001828103825260378152602001807f4572726f723a2043616e6e6f74207265696e7374616e7469617465206120637581526020017f7272656e746c792061637469766520636f6e747261637400000000000000000081525060400191505060405180910390fd5b600360009054906101000a900473ffffffffffffffffffffffffffffffffffffffff1673ffffffffffffffffffffffffffffffffffffffff166316614c98338787856040518563ffffffff167c0100000000000000000000000000000000000000000000000000000000028152600401808573ffffffffffffffffffffffffffffffffffffffff1673ffffffffffffffffffffffffffffffffffffffff1681526020018473ffffffffffffffffffffffffffffffffffffffff1673ffffffffffffffffffffffffffffffffffffffff1681526020018381526020018267ffffffffffffffff168152602001945050505050602060405180830381600087803b158015610e9a57600080fd5b505af1158015610eae573d6000803e3d6000fd5b505050506040513d6020811015610ec457600080fd5b810190808051906020019092919050505050610ef085338684438667ffffffffffffffff164301611da1565b8067ffffffffffffffff163373ffffffffffffffffffffffffffffffffffffffff168673ffffffffffffffffffffffffffffffffffffffff167f10cd0837c48b7daca59ad3bbdbdc193ea84eea36bfde21b4c4b0960ab41b9f2f8587896040518084815260200180602001838152602001828103825284818151815260200191508051906020019060200280838360005b83811015610f9c578082015181840152602081019050610f81565b5050505090500194505050505060405180910390a45050505050565b6000809054906101000a900473ffffffffffffffffffffffffffffffffffffffff1673ffffffffffffffffffffffffffffffffffffffff163373ffffffffffffffffffffffffffffffffffffffff1614151561101357600080fd5b6000809054906101000a900473ffffffffffffffffffffffffffffffffffffffff1673ffffffffffffffffffffffffffffffffffffffff16ff5b6000600560009054906101000a900473ffffffffffffffffffffffffffffffffffffffff1673ffffffffffffffffffffffffffffffffffffffff16632ecb0d6485858560405160200180807f737562736372697074696f6e7300000000000000000000000000000000000000815250600d018473ffffffffffffffffffffffffffffffffffffffff1673ffffffffffffffffffffffffffffffffffffffff166c010000000000000000000000000281526014018373ffffffffffffffffffffffffffffffffffffffff1673ffffffffffffffffffffffffffffffffffffffff166c01000000000000000000000000028152601401828152602001807f646f7473000000000000000000000000000000000000000000000000000000008152506004019350505050604051602081830303815290604052805190602001206040518263ffffffff167c01000000000000000000000000000000000000000000000000000000000281526004018082815260200191505060206040518083038186803b1580156111da57600080fd5b505afa1580156111ee573d6000803e3d6000fd5b505050506040513d602081101561120457600080fd5b810190808051906020019092919050505090509392505050565b600460009054906101000a900473ffffffffffffffffffffffffffffffffffffffff1681565b6000600560009054906101000a900473ffffffffffffffffffffffffffffffffffffffff1673ffffffffffffffffffffffffffffffffffffffff16632ecb0d6485858560405160200180807f737562736372697074696f6e7300000000000000000000000000000000000000815250600d018473ffffffffffffffffffffffffffffffffffffffff1673ffffffffffffffffffffffffffffffffffffffff166c010000000000000000000000000281526014018373ffffffffffffffffffffffffffffffffffffffff1673ffffffffffffffffffffffffffffffffffffffff166c01000000000000000000000000028152601401828152602001807f707265426c6f636b456e64000000000000000000000000000000000000000000815250600b019350505050604051602081830303815290604052805190602001206040518263ffffffff167c01000000000000000000000000000000000000000000000000000000000281526004018082815260200191505060206040518083038186803b1580156113d157600080fd5b505afa1580156113e5573d6000803e3d6000fd5b505050506040513d60208110156113fb57600080fd5b810190808051906020019092919050505090509392505050565b6000809054906101000a900473ffffffffffffffffffffffffffffffffffffffff1673ffffffffffffffffffffffffffffffffffffffff163373ffffffffffffffffffffffffffffffffffffffff1614151561147057600080fd5b600073ffffffffffffffffffffffffffffffffffffffff168173ffffffffffffffffffffffffffffffffffffffff16141515156114ac57600080fd5b8073ffffffffffffffffffffffffffffffffffffffff166000809054906101000a900473ffffffffffffffffffffffffffffffffffffffff1673ffffffffffffffffffffffffffffffffffffffff167f8be0079c531659141344cd1fd0a4f28419497f9722a3daafe3b4186f6b6457e060405160405180910390a3806000806101000a81548173ffffffffffffffffffffffffffffffffffffffff021916908373ffffffffffffffffffffffffffffffffffffffff16021790555050565b6115753383836115e6565b156115e2576000600181111561158757fe5b8273ffffffffffffffffffffffffffffffffffffffff163373ffffffffffffffffffffffffffffffffffffffff167fe27dcf9b3b50e7d3af96f88c64ebd7307cdef3359182881bfe7210b42433a44960405160405180910390a45b5050565b6000806115f485858561104d565b67ffffffffffffffff169050600061160d868686611244565b6bffffffffffffffffffffffff1690506000821115156116bb576040517f08c379a000000000000000000000000000000000000000000000000000000000815260040180806020018281038252602a8152602001807f4572726f723a2053756273637269626572206d7573742068617665206120737581526020017f62736372697074696f6e0000000000000000000000000000000000000000000081525060400191505060405180910390fd5b8043101561196a5760006116d08787876107e7565b6bffffffffffffffffffffffff164303905060008184039050600360009054906101000a900473ffffffffffffffffffffffffffffffffffffffff1673ffffffffffffffffffffffffffffffffffffffff16633b058aa7888a89866040518563ffffffff167c0100000000000000000000000000000000000000000000000000000000028152600401808573ffffffffffffffffffffffffffffffffffffffff1673ffffffffffffffffffffffffffffffffffffffff1681526020018473ffffffffffffffffffffffffffffffffffffffff1673ffffffffffffffffffffffffffffffffffffffff168152602001838152602001828152602001945050505050602060405180830381600087803b1580156117ea57600080fd5b505af11580156117fe573d6000803e3d6000fd5b505050506040513d602081101561181457600080fd5b810190808051906020019092919050505050600360009054906101000a900473ffffffffffffffffffffffffffffffffffffffff1673ffffffffffffffffffffffffffffffffffffffff1663f6dfac25888a89856040518563ffffffff167c0100000000000000000000000000000000000000000000000000000000028152600401808573ffffffffffffffffffffffffffffffffffffffff1673ffffffffffffffffffffffffffffffffffffffff1681526020018473ffffffffffffffffffffffffffffffffffffffff1673ffffffffffffffffffffffffffffffffffffffff168152602001838152602001828152602001945050505050602060405180830381600087803b15801561192757600080fd5b505af115801561193b573d6000803e3d6000fd5b505050506040513d602081101561195157600080fd5b8101908080519060200190929190505050505050611aa8565b600360009054906101000a900473ffffffffffffffffffffffffffffffffffffffff1673ffffffffffffffffffffffffffffffffffffffff16633b058aa7868887866040518563ffffffff167c0100000000000000000000000000000000000000000000000000000000028152600401808573ffffffffffffffffffffffffffffffffffffffff1673ffffffffffffffffffffffffffffffffffffffff1681526020018473ffffffffffffffffffffffffffffffffffffffff1673ffffffffffffffffffffffffffffffffffffffff168152602001838152602001828152602001945050505050602060405180830381600087803b158015611a6b57600080fd5b505af1158015611a7f573d6000803e3d6000fd5b505050506040513d6020811015611a9557600080fd5b8101908080519060200190929190505050505b611ab38686866122d6565b6001925050509392505050565b600260009054906101000a900473ffffffffffffffffffffffffffffffffffffffff1673ffffffffffffffffffffffffffffffffffffffff1663358177736040518163ffffffff167c01000000000000000000000000000000000000000000000000000000000281526004018080602001828103825260078152602001807f424f4e444147450000000000000000000000000000000000000000000000000081525060200191505060206040518083038186803b158015611b8057600080fd5b505afa158015611b94573d6000803e3d6000fd5b505050506040513d6020811015611baa57600080fd5b8101908080519060200190929190505050600460006101000a81548173ffffffffffffffffffffffffffffffffffffffff021916908373ffffffffffffffffffffffffffffffffffffffff160217905550600460009054906101000a900473ffffffffffffffffffffffffffffffffffffffff16600360006101000a81548173ffffffffffffffffffffffffffffffffffffffff021916908373ffffffffffffffffffffffffffffffffffffffff1602179055506000600260009054906101000a900473ffffffffffffffffffffffffffffffffffffffff1673ffffffffffffffffffffffffffffffffffffffff1663358177736040518163ffffffff167c01000000000000000000000000000000000000000000000000000000000281526004018080602001828103825260088152602001807f444154414241534500000000000000000000000000000000000000000000000081525060200191505060206040518083038186803b158015611d2057600080fd5b505afa158015611d34573d6000803e3d6000fd5b505050506040513d6020811015611d4a57600080fd5b8101908080519060200190929190505050905080600560006101000a81548173ffffffffffffffffffffffffffffffffffffffff021916908373ffffffffffffffffffffffffffffffffffffffff16021790555050565b600560009054906101000a900473ffffffffffffffffffffffffffffffffffffffff1673ffffffffffffffffffffffffffffffffffffffff166354c552db87878760405160200180807f737562736372697074696f6e7300000000000000000000000000000000000000815250600d018473ffffffffffffffffffffffffffffffffffffffff1673ffffffffffffffffffffffffffffffffffffffff166c010000000000000000000000000281526014018373ffffffffffffffffffffffffffffffffffffffff1673ffffffffffffffffffffffffffffffffffffffff166c01000000000000000000000000028152601401828152602001807f646f747300000000000000000000000000000000000000000000000000000000815250600401935050505060405160208183030381529060405280519060200120856040518363ffffffff167c0100000000000000000000000000000000000000000000000000000000028152600401808381526020018267ffffffffffffffff16815260200192505050600060405180830381600087803b158015611f4057600080fd5b505af1158015611f54573d6000803e3d6000fd5b50505050600560009054906101000a900473ffffffffffffffffffffffffffffffffffffffff1673ffffffffffffffffffffffffffffffffffffffff166354c552db87878760405160200180807f737562736372697074696f6e7300000000000000000000000000000000000000815250600d018473ffffffffffffffffffffffffffffffffffffffff1673ffffffffffffffffffffffffffffffffffffffff166c010000000000000000000000000281526014018373ffffffffffffffffffffffffffffffffffffffff1673ffffffffffffffffffffffffffffffffffffffff166c01000000000000000000000000028152601401828152602001807f626c6f636b537461727400000000000000000000000000000000000000000000815250600a01935050505060405160208183030381529060405280519060200120846bffffffffffffffffffffffff166040518363ffffffff167c01000000000000000000000000000000000000000000000000000000000281526004018083815260200182815260200192505050600060405180830381600087803b1580156120fb57600080fd5b505af115801561210f573d6000803e3d6000fd5b50505050600560009054906101000a900473ffffffffffffffffffffffffffffffffffffffff1673ffffffffffffffffffffffffffffffffffffffff166354c552db87878760405160200180807f737562736372697074696f6e7300000000000000000000000000000000000000815250600d018473ffffffffffffffffffffffffffffffffffffffff1673ffffffffffffffffffffffffffffffffffffffff166c010000000000000000000000000281526014018373ffffffffffffffffffffffffffffffffffffffff1673ffffffffffffffffffffffffffffffffffffffff166c01000000000000000000000000028152601401828152602001807f707265426c6f636b456e64000000000000000000000000000000000000000000815250600b01935050505060405160208183030381529060405280519060200120836bffffffffffffffffffffffff166040518363ffffffff167c01000000000000000000000000000000000000000000000000000000000281526004018083815260200182815260200192505050600060405180830381600087803b1580156122b657600080fd5b505af11580156122ca573d6000803e3d6000fd5b50505050505050505050565b600560009054906101000a900473ffffffffffffffffffffffffffffffffffffffff1673ffffffffffffffffffffffffffffffffffffffff166354c552db84848460405160200180807f737562736372697074696f6e7300000000000000000000000000000000000000815250600d018473ffffffffffffffffffffffffffffffffffffffff1673ffffffffffffffffffffffffffffffffffffffff166c010000000000000000000000000281526014018373ffffffffffffffffffffffffffffffffffffffff1673ffffffffffffffffffffffffffffffffffffffff166c01000000000000000000000000028152601401828152602001807f646f74730000000000000000000000000000000000000000000000000000000081525060040193505050506040516020818303038152906040528051906020012060006040518363ffffffff167c01000000000000000000000000000000000000000000000000000000000281526004018083815260200182815260200192505050600060405180830381600087803b15801561246c57600080fd5b505af1158015612480573d6000803e3d6000fd5b50505050600560009054906101000a900473ffffffffffffffffffffffffffffffffffffffff1673ffffffffffffffffffffffffffffffffffffffff166354c552db84848460405160200180807f737562736372697074696f6e7300000000000000000000000000000000000000815250600d018473ffffffffffffffffffffffffffffffffffffffff1673ffffffffffffffffffffffffffffffffffffffff166c010000000000000000000000000281526014018373ffffffffffffffffffffffffffffffffffffffff1673ffffffffffffffffffffffffffffffffffffffff166c01000000000000000000000000028152601401828152602001807f626c6f636b537461727400000000000000000000000000000000000000000000815250600a0193505050506040516020818303038152906040528051906020012060006040518363ffffffff167c01000000000000000000000000000000000000000000000000000000000281526004018083815260200182815260200192505050600060405180830381600087803b15801561261a57600080fd5b505af115801561262e573d6000803e3d6000fd5b50505050600560009054906101000a900473ffffffffffffffffffffffffffffffffffffffff1673ffffffffffffffffffffffffffffffffffffffff166354c552db84848460405160200180807f737562736372697074696f6e7300000000000000000000000000000000000000815250600d018473ffffffffffffffffffffffffffffffffffffffff1673ffffffffffffffffffffffffffffffffffffffff166c010000000000000000000000000281526014018373ffffffffffffffffffffffffffffffffffffffff1673ffffffffffffffffffffffffffffffffffffffff166c01000000000000000000000000028152601401828152602001807f707265426c6f636b456e64000000000000000000000000000000000000000000815250600b0193505050506040516020818303038152906040528051906020012060006040518363ffffffff167c01000000000000000000000000000000000000000000000000000000000281526004018083815260200182815260200192505050600060405180830381600087803b1580156127c857600080fd5b505af11580156127dc573d6000803e3d6000fd5b5050505050505056fea165627a7a72305820c285619fdb5f147324341e874fa88b015fd0f6425ba6871afa2601ae848322870029",
  "linkReferences": {},
  "deployedLinkReferences": {}
}