{
  "_format": "hh-sol-artifact-1",
  "contractName": "OffChainClient",
  "sourceName": "contracts/lib/platform/OffChainClient.sol",
  "abi": [
    {
      "constant": false,
      "inputs": [
        {
          "name": "id",
          "type": "uint256"
        },
        {
          "name": "response",
          "type": "bytes32[]"
        }
      ],
      "name": "callback",
      "outputs": [],
      "payable": false,
      "stateMutability": "nonpayable",
      "type": "function"
    },
    {
      "constant": false,
      "inputs": [
        {
          "name": "id",
          "type": "uint256"
        },
        {
          "name": "response1",
          "type": "string"
        }
      ],
      "name": "Callback",
      "outputs": [],
      "payable": false,
      "stateMutability": "nonpayable",
      "type": "function"
    },
    {
      "constant": false,
      "inputs": [
        {
          "name": "id",
          "type": "uint256"
        }
      ],
      "name": "cancelQuery",
      "outputs": [],
      "payable": false,
      "stateMutability": "nonpayable",
      "type": "function"
    },
    {
      "constant": false,
      "inputs": [
        {
          "name": "id",
          "type": "uint256"
        },
        {
          "name": "response1",
          "type": "string"
        }
      ],
      "name": "callback",
      "outputs": [],
      "payable": false,
      "stateMutability": "nonpayable",
      "type": "function"
    },
    {
      "constant": false,
      "inputs": [
        {
          "name": "oracleAddr",
          "type": "address"
        },
        {
          "name": "query",
          "type": "string"
        },
        {
          "name": "specifier",
          "type": "bytes32"
        },
        {
          "name": "params",
          "type": "bytes32[]"
        }
      ],
      "name": "testQuery",
      "outputs": [
        {
          "name": "",
          "type": "uint256"
        }
      ],
      "payable": false,
      "stateMutability": "nonpayable",
      "type": "function"
    },
    {
      "constant": false,
      "inputs": [
        {
          "name": "id",
          "type": "uint256"
        },
        {
          "name": "response1",
          "type": "string"
        },
        {
          "name": "response2",
          "type": "string"
        }
      ],
      "name": "callback",
      "outputs": [],
      "payable": false,
      "stateMutability": "nonpayable",
      "type": "function"
    },
    {
      "inputs": [
        {
          "name": "tokenAddress",
          "type": "address"
        },
        {
          "name": "dispatchAddress",
          "type": "address"
        },
        {
          "name": "bondageAddress",
          "type": "address"
        },
        {
          "name": "registryAddress",
          "type": "address"
        },
        {
          "name": "oracle",
          "type": "address"
        }
      ],
      "payable": false,
      "stateMutability": "nonpayable",
      "type": "constructor"
    },
    {
      "anonymous": false,
      "inputs": [
        {
          "indexed": false,
          "name": "oracle",
          "type": "address"
        },
        {
          "indexed": false,
          "name": "query",
          "type": "string"
        },
        {
          "indexed": false,
          "name": "id",
          "type": "uint256"
        }
      ],
      "name": "MadeQuery",
      "type": "event"
    },
    {
      "anonymous": false,
      "inputs": [
        {
          "indexed": false,
          "name": "id",
          "type": "uint256"
        },
        {
          "indexed": false,
          "name": "response1",
          "type": "string"
        }
      ],
      "name": "Result1",
      "type": "event"
    },
    {
      "anonymous": false,
      "inputs": [
        {
          "indexed": false,
          "name": "id",
          "type": "uint256"
        },
        {
          "indexed": false,
          "name": "response1",
          "type": "bytes32"
        }
      ],
      "name": "Result1",
      "type": "event"
    },
    {
      "anonymous": false,
      "inputs": [
        {
          "indexed": false,
          "name": "id",
          "type": "uint256"
        },
        {
          "indexed": false,
          "name": "response1",
          "type": "string"
        },
        {
          "indexed": false,
          "name": "response2",
          "type": "string"
        }
      ],
      "name": "Result2",
      "type": "event"
    }
  ],
  "bytecode": "0x608060405234801561001057600080fd5b5060405160a080610d6b833981018060405260a081101561003057600080fd5b810190808051906020019092919080519060200190929190805190602001909291908051906020019092919080519060200190929190505050846000806101000a81548173ffffffffffffffffffffffffffffffffffffffff021916908373ffffffffffffffffffffffffffffffffffffffff16021790555083600160006101000a81548173ffffffffffffffffffffffffffffffffffffffff021916908373ffffffffffffffffffffffffffffffffffffffff16021790555082600260006101000a81548173ffffffffffffffffffffffffffffffffffffffff021916908373ffffffffffffffffffffffffffffffffffffffff16021790555081600360006101000a81548173ffffffffffffffffffffffffffffffffffffffff021916908373ffffffffffffffffffffffffffffffffffffffff16021790555080600460006101000a81548173ffffffffffffffffffffffffffffffffffffffff021916908373ffffffffffffffffffffffffffffffffffffffff1602179055505050505050610baa806101c16000396000f3fe608060405260043610610072576000357c01000000000000000000000000000000000000000000000000000000009004806363b41fe9146100775780636f34fcee146101075780637237dc0b14610197578063b69a375d146101d2578063d075f20f14610262578063f5795cd51461037b575b600080fd5b34801561008357600080fd5b506101056004803603604081101561009a57600080fd5b8101908080359060200190929190803590602001906401000000008111156100c157600080fd5b8201836020820111156100d357600080fd5b803590602001918460208302840111640100000000831117156100f557600080fd5b9091929391929390505050610460565b005b34801561011357600080fd5b506101956004803603604081101561012a57600080fd5b81019080803590602001909291908035906020019064010000000081111561015157600080fd5b82018360208201111561016357600080fd5b8035906020019184600183028401116401000000008311171561018557600080fd5b9091929391929390505050610515565b005b3480156101a357600080fd5b506101d0600480360360208110156101ba57600080fd5b8101908080359060200190929190505050610664565b005b3480156101de57600080fd5b50610260600480360360408110156101f557600080fd5b81019080803590602001909291908035906020019064010000000081111561021c57600080fd5b82018360208201111561022e57600080fd5b8035906020019184600183028401116401000000008311171561025057600080fd5b9091929391929390505050610710565b005b34801561026e57600080fd5b506103656004803603608081101561028557600080fd5b81019080803573ffffffffffffffffffffffffffffffffffffffff169060200190929190803590602001906401000000008111156102c257600080fd5b8201836020820111156102d457600080fd5b803590602001918460018302840111640100000000831117156102f657600080fd5b9091929391929390803590602001909291908035906020019064010000000081111561032157600080fd5b82018360208201111561033357600080fd5b8035906020019184602083028401116401000000008311171561035557600080fd5b909192939192939050505061085f565b6040518082815260200191505060405180910390f35b34801561038757600080fd5b5061045e6004803603606081101561039e57600080fd5b8101908080359060200190929190803590602001906401000000008111156103c557600080fd5b8201836020820111156103d757600080fd5b803590602001918460018302840111640100000000831117156103f957600080fd5b90919293919293908035906020019064010000000081111561041a57600080fd5b82018360208201111561042c57600080fd5b8035906020019184600183028401116401000000008311171561044e57600080fd5b9091929391929390505050610a7c565b005b600460009054906101000a900473ffffffffffffffffffffffffffffffffffffffff1673ffffffffffffffffffffffffffffffffffffffff163373ffffffffffffffffffffffffffffffffffffffff161415156104bc57600080fd5b7f5eef7b8de70c44e7326d1d7baa155450f5b38fc8d41309c12b2fc81817606b81838383600081811015156104ed57fe5b90506020020135604051808381526020018281526020019250505060405180910390a1505050565b600460009054906101000a900473ffffffffffffffffffffffffffffffffffffffff1673ffffffffffffffffffffffffffffffffffffffff163373ffffffffffffffffffffffffffffffffffffffff1614151561057157600080fd5b606082828080601f016020809104026020016040519081016040528093929190818152602001838380828437600081840152601f19601f8201169050808301925050505050505090507f5d599109d8427016e4c93bff9b5f27e4cd24a83316a010d9ef7e15b7105d30e784826040518083815260200180602001828103825283818151815260200191508051906020019080838360005b83811015610623578082015181840152602081019050610608565b50505050905090810190601f1680156106505780820380516001836020036101000a031916815260200191505b50935050505060405180910390a150505050565b600160009054906101000a900473ffffffffffffffffffffffffffffffffffffffff1673ffffffffffffffffffffffffffffffffffffffff16637237dc0b826040518263ffffffff167c010000000000000000000000000000000000000000000000000000000002815260040180828152602001915050600060405180830381600087803b1580156106f557600080fd5b505af1158015610709573d6000803e3d6000fd5b5050505050565b600460009054906101000a900473ffffffffffffffffffffffffffffffffffffffff1673ffffffffffffffffffffffffffffffffffffffff163373ffffffffffffffffffffffffffffffffffffffff1614151561076c57600080fd5b606082828080601f016020809104026020016040519081016040528093929190818152602001838380828437600081840152601f19601f8201169050808301925050505050505090507f5d599109d8427016e4c93bff9b5f27e4cd24a83316a010d9ef7e15b7105d30e784826040518083815260200180602001828103825283818151815260200191508051906020019080838360005b8381101561081e578082015181840152602081019050610803565b50505050905090810190601f16801561084b5780820380516001836020036101000a031916815260200191505b50935050505060405180910390a150505050565b600080600160009054906101000a900473ffffffffffffffffffffffffffffffffffffffff1673ffffffffffffffffffffffffffffffffffffffff16637de7cc668989898989896040518763ffffffff167c0100000000000000000000000000000000000000000000000000000000028152600401808773ffffffffffffffffffffffffffffffffffffffff1673ffffffffffffffffffffffffffffffffffffffff16815260200180602001858152602001806020018381038352888882818152602001925080828437600081840152601f19601f8201169050808301925050508381038252858582818152602001925060200280828437600081840152601f19601f82011690508083019250505098505050505050505050602060405180830381600087803b15801561099257600080fd5b505af11580156109a6573d6000803e3d6000fd5b505050506040513d60208110156109bc57600080fd5b810190808051906020019092919050505090507f50b551167947510d4c64636aac23b675db7849e6e7c824e4cf5830c3400e98a088888884604051808573ffffffffffffffffffffffffffffffffffffffff1673ffffffffffffffffffffffffffffffffffffffff168152602001806020018381526020018281038252858582818152602001925080828437600081840152601f19601f8201169050808301925050509550505050505060405180910390a1809150509695505050505050565b600460009054906101000a900473ffffffffffffffffffffffffffffffffffffffff1673ffffffffffffffffffffffffffffffffffffffff163373ffffffffffffffffffffffffffffffffffffffff16141515610ad857600080fd5b7f0c98c7262dfd083f4b7cd58bc095ed2ef00c31ad4e6859d16be4c2b0f7fadeae85858585856040518086815260200180602001806020018381038352878782818152602001925080828437600081840152601f19601f8201169050808301925050508381038252858582818152602001925080828437600081840152601f19601f82011690508083019250505097505050505050505060405180910390a1505050505056fea165627a7a72305820e7744994d68f7d57cb4dd8bc993e8cbf7020c03e4dff49417f311fe2e7d567a80029",
  "linkReferences": {},
  "deployedLinkReferences": {}
}