{
  "_format": "hh-sol-artifact-1",
  "contractName": "Database",
  "sourceName": "contracts/platform/database/Database.sol",
  "abi": [
    {
      "constant": false,
      "inputs": [
        {
          "name": "key",
          "type": "bytes32"
        },
        {
          "name": "index",
          "type": "uint256"
        },
        {
          "name": "value",
          "type": "int256"
        }
      ],
      "name": "setIntArrayIndex",
      "outputs": [],
      "payable": false,
      "stateMutability": "nonpayable",
      "type": "function"
    },
    {
      "constant": false,
      "inputs": [
        {
          "name": "key",
          "type": "bytes32"
        },
        {
          "name": "value",
          "type": "int256"
        }
      ],
      "name": "pushIntArray",
      "outputs": [],
      "payable": false,
      "stateMutability": "nonpayable",
      "type": "function"
    },
    {
      "constant": true,
      "inputs": [
        {
          "name": "key",
          "type": "bytes32"
        }
      ],
      "name": "getIntArray",
      "outputs": [
        {
          "name": "",
          "type": "int256[]"
        }
      ],
      "payable": false,
      "stateMutability": "view",
      "type": "function"
    },
    {
      "constant": false,
      "inputs": [
        {
          "name": "key",
          "type": "bytes32"
        },
        {
          "name": "value",
          "type": "bytes"
        }
      ],
      "name": "setBytes",
      "outputs": [],
      "payable": false,
      "stateMutability": "nonpayable",
      "type": "function"
    },
    {
      "constant": true,
      "inputs": [
        {
          "name": "key",
          "type": "bytes32"
        }
      ],
      "name": "getNumber",
      "outputs": [
        {
          "name": "",
          "type": "uint256"
        }
      ],
      "payable": false,
      "stateMutability": "view",
      "type": "function"
    },
    {
      "constant": true,
      "inputs": [
        {
          "name": "key",
          "type": "bytes32"
        }
      ],
      "name": "getAddressArrayLength",
      "outputs": [
        {
          "name": "",
          "type": "uint256"
        }
      ],
      "payable": false,
      "stateMutability": "view",
      "type": "function"
    },
    {
      "constant": true,
      "inputs": [
        {
          "name": "key",
          "type": "bytes32"
        }
      ],
      "name": "getBytesArrayLength",
      "outputs": [
        {
          "name": "",
          "type": "uint256"
        }
      ],
      "payable": false,
      "stateMutability": "view",
      "type": "function"
    },
    {
      "constant": false,
      "inputs": [
        {
          "name": "key",
          "type": "bytes32"
        },
        {
          "name": "value",
          "type": "bytes32"
        }
      ],
      "name": "setBytes32",
      "outputs": [],
      "payable": false,
      "stateMutability": "nonpayable",
      "type": "function"
    },
    {
      "constant": false,
      "inputs": [
        {
          "name": "key",
          "type": "bytes32"
        },
        {
          "name": "value",
          "type": "uint256"
        }
      ],
      "name": "setNumber",
      "outputs": [],
      "payable": false,
      "stateMutability": "nonpayable",
      "type": "function"
    },
    {
      "constant": false,
      "inputs": [
        {
          "name": "key",
          "type": "bytes32"
        },
        {
          "name": "value",
          "type": "bytes32[]"
        }
      ],
      "name": "setBytesArray",
      "outputs": [],
      "payable": false,
      "stateMutability": "nonpayable",
      "type": "function"
    },
    {
      "constant": true,
      "inputs": [
        {
          "name": "key",
          "type": "bytes32"
        }
      ],
      "name": "getAddressArray",
      "outputs": [
        {
          "name": "",
          "type": "address[]"
        }
      ],
      "payable": false,
      "stateMutability": "view",
      "type": "function"
    },
    {
      "constant": true,
      "inputs": [
        {
          "name": "key",
          "type": "bytes32"
        },
        {
          "name": "index",
          "type": "uint256"
        }
      ],
      "name": "getBytesArrayIndex",
      "outputs": [
        {
          "name": "",
          "type": "bytes32"
        }
      ],
      "payable": false,
      "stateMutability": "view",
      "type": "function"
    },
    {
      "constant": false,
      "inputs": [
        {
          "name": "key",
          "type": "bytes32"
        },
        {
          "name": "value",
          "type": "string"
        }
      ],
      "name": "setString",
      "outputs": [],
      "payable": false,
      "stateMutability": "nonpayable",
      "type": "function"
    },
    {
      "constant": false,
      "inputs": [
        {
          "name": "key",
          "type": "bytes32"
        },
        {
          "name": "index",
          "type": "uint256"
        },
        {
          "name": "value",
          "type": "address"
        }
      ],
      "name": "setAddressArrayIndex",
      "outputs": [],
      "payable": false,
      "stateMutability": "nonpayable",
      "type": "function"
    },
    {
      "constant": false,
      "inputs": [
        {
          "name": "key",
          "type": "bytes32"
        },
        {
          "name": "value",
          "type": "bytes32"
        }
      ],
      "name": "pushBytesArray",
      "outputs": [],
      "payable": false,
      "stateMutability": "nonpayable",
      "type": "function"
    },
    {
      "constant": true,
      "inputs": [],
      "name": "owner",
      "outputs": [
        {
          "name": "",
          "type": "address"
        }
      ],
      "payable": false,
      "stateMutability": "view",
      "type": "function"
    },
    {
      "constant": true,
      "inputs": [
        {
          "name": "key",
          "type": "bytes32"
        }
      ],
      "name": "getBytesArray",
      "outputs": [
        {
          "name": "",
          "type": "bytes32[]"
        }
      ],
      "payable": false,
      "stateMutability": "view",
      "type": "function"
    },
    {
      "constant": true,
      "inputs": [
        {
          "name": "key",
          "type": "bytes32"
        }
      ],
      "name": "getString",
      "outputs": [
        {
          "name": "",
          "type": "string"
        }
      ],
      "payable": false,
      "stateMutability": "view",
      "type": "function"
    },
    {
      "constant": true,
      "inputs": [
        {
          "name": "key",
          "type": "bytes32"
        }
      ],
      "name": "getIntArrayLength",
      "outputs": [
        {
          "name": "",
          "type": "uint256"
        }
      ],
      "payable": false,
      "stateMutability": "view",
      "type": "function"
    },
    {
      "constant": true,
      "inputs": [
        {
          "name": "key",
          "type": "bytes32"
        },
        {
          "name": "index",
          "type": "uint256"
        }
      ],
      "name": "getIntArrayIndex",
      "outputs": [
        {
          "name": "",
          "type": "int256"
        }
      ],
      "payable": false,
      "stateMutability": "view",
      "type": "function"
    },
    {
      "constant": false,
      "inputs": [
        {
          "name": "_storageContract",
          "type": "address"
        },
        {
          "name": "_allowed",
          "type": "bool"
        }
      ],
      "name": "setStorageContract",
      "outputs": [],
      "payable": false,
      "stateMutability": "nonpayable",
      "type": "function"
    },
    {
      "constant": false,
      "inputs": [
        {
          "name": "key",
          "type": "bytes32"
        },
        {
          "name": "index",
          "type": "uint256"
        },
        {
          "name": "value",
          "type": "bytes32"
        }
      ],
      "name": "setBytesArrayIndex",
      "outputs": [],
      "payable": false,
      "stateMutability": "nonpayable",
      "type": "function"
    },
    {
      "constant": true,
      "inputs": [
        {
          "name": "key",
          "type": "bytes32"
        }
      ],
      "name": "getBytes32",
      "outputs": [
        {
          "name": "",
          "type": "bytes32"
        }
      ],
      "payable": false,
      "stateMutability": "view",
      "type": "function"
    },
    {
      "constant": false,
      "inputs": [
        {
          "name": "key",
          "type": "bytes32"
        },
        {
          "name": "value",
          "type": "int256[]"
        }
      ],
      "name": "setIntArray",
      "outputs": [],
      "payable": false,
      "stateMutability": "nonpayable",
      "type": "function"
    },
    {
      "constant": true,
      "inputs": [
        {
          "name": "key",
          "type": "bytes32"
        }
      ],
      "name": "getBytes",
      "outputs": [
        {
          "name": "",
          "type": "bytes"
        }
      ],
      "payable": false,
      "stateMutability": "view",
      "type": "function"
    },
    {
      "constant": false,
      "inputs": [
        {
          "name": "key",
          "type": "bytes32"
        },
        {
          "name": "value",
          "type": "address"
        }
      ],
      "name": "pushAddressArray",
      "outputs": [],
      "payable": false,
      "stateMutability": "nonpayable",
      "type": "function"
    },
    {
      "constant": true,
      "inputs": [
        {
          "name": "key",
          "type": "bytes32"
        },
        {
          "name": "index",
          "type": "uint256"
        }
      ],
      "name": "getAddressArrayIndex",
      "outputs": [
        {
          "name": "",
          "type": "address"
        }
      ],
      "payable": false,
      "stateMutability": "view",
      "type": "function"
    },
    {
      "constant": false,
      "inputs": [
        {
          "name": "key",
          "type": "bytes32"
        },
        {
          "name": "value",
          "type": "address[]"
        }
      ],
      "name": "setAddressArray",
      "outputs": [],
      "payable": false,
      "stateMutability": "nonpayable",
      "type": "function"
    },
    {
      "constant": false,
      "inputs": [
        {
          "name": "newOwner",
          "type": "address"
        }
      ],
      "name": "transferOwnership",
      "outputs": [],
      "payable": false,
      "stateMutability": "nonpayable",
      "type": "function"
    },
    {
      "anonymous": false,
      "inputs": [
        {
          "indexed": true,
          "name": "contractAddress",
          "type": "address"
        },
        {
          "indexed": false,
          "name": "allowed",
          "type": "bool"
        }
      ],
      "name": "StorageModified",
      "type": "event"
    },
    {
      "anonymous": false,
      "inputs": [
        {
          "indexed": true,
          "name": "previousOwner",
          "type": "address"
        },
        {
          "indexed": true,
          "name": "newOwner",
          "type": "address"
        }
      ],
      "name": "OwnershipTransferred",
      "type": "event"
    }
  ],
  "bytecode": "0x6080604052336000806101000a81548173ffffffffffffffffffffffffffffffffffffffff021916908373ffffffffffffffffffffffffffffffffffffffff160217905550612394806100536000396000f3fe60806040526004361061016f576000357c0100000000000000000000000000000000000000000000000000000000900480630dd63ba3146101745780631b929940146101c35780632d2899b6146102085780632e28d084146102985780632ecb0d64146103285780632fc94ba61461037757806343cb0af7146103c65780634e91db081461041557806354c552db1461045a57806356e5cf2e1461049f5780635948f7331461052f5780635eca2aeb146105bf5780636e8995501461061857806387ddf6cd146106a85780638d152d781461070d5780638da5cb5b146107525780638db0e83b146107a9578063986e791a14610839578063a21a65ae146108ed578063a29872451461093c578063a42b6bf114610995578063a4f63ec8146109f2578063a6ed563e14610a41578063a9fcf76b14610a90578063c031a18014610b20578063dd151d1e14610bd4578063e16e934014610c2f578063ec672cf614610cb4578063f2fde38b14610d44575b600080fd5b34801561018057600080fd5b506101c16004803603606081101561019757600080fd5b81019080803590602001909291908035906020019092919080359060200190929190505050610d95565b005b3480156101cf57600080fd5b50610206600480360360408110156101e657600080fd5b810190808035906020019092919080359060200190929190505050610eb0565b005b34801561021457600080fd5b506102416004803603602081101561022b57600080fd5b8101908080359060200190929190505050610ef1565b6040518080602001828103825283818151815260200191508051906020019060200280838360005b83811015610284578082015181840152602081019050610269565b505050509050019250505060405180910390f35b3480156102a457600080fd5b50610326600480360360408110156102bb57600080fd5b8101908080359060200190929190803590602001906401000000008111156102e257600080fd5b8201836020820111156102f457600080fd5b8035906020019184600183028401116401000000008311171561031657600080fd5b9091929391929390505050610f5c565b005b34801561033457600080fd5b506103616004803603602081101561034b57600080fd5b810190808035906020019092919050505061106b565b6040518082815260200191505060405180910390f35b34801561038357600080fd5b506103b06004803603602081101561039a57600080fd5b810190808035906020019092919050505061108c565b6040518082815260200191505060405180910390f35b3480156103d257600080fd5b506103ff600480360360208110156103e957600080fd5b81019080803590602001909291905050506110ac565b6040518082815260200191505060405180910390f35b34801561042157600080fd5b506104586004803603604081101561043857600080fd5b8101908080359060200190929190803590602001909291905050506110cc565b005b34801561046657600080fd5b5061049d6004803603604081101561047d57600080fd5b8101908080359060200190929190803590602001909291905050506111cf565b005b3480156104ab57600080fd5b5061052d600480360360408110156104c257600080fd5b8101908080359060200190929190803590602001906401000000008111156104e957600080fd5b8201836020820111156104fb57600080fd5b8035906020019184602083028401116401000000008311171561051d57600080fd5b90919293919293905050506112d5565b005b34801561053b57600080fd5b506105686004803603602081101561055257600080fd5b81019080803590602001909291905050506113e4565b6040518080602001828103825283818151815260200191508051906020019060200280838360005b838110156105ab578082015181840152602081019050610590565b505050509050019250505060405180910390f35b3480156105cb57600080fd5b50610602600480360360408110156105e257600080fd5b810190808035906020019092919080359060200190929190505050611485565b6040518082815260200191505060405180910390f35b34801561062457600080fd5b506106a66004803603604081101561063b57600080fd5b81019080803590602001909291908035906020019064010000000081111561066257600080fd5b82018360208201111561067457600080fd5b8035906020019184600183028401116401000000008311171561069657600080fd5b90919293919293905050506114ba565b005b3480156106b457600080fd5b5061070b600480360360608110156106cb57600080fd5b810190808035906020019092919080359060200190929190803573ffffffffffffffffffffffffffffffffffffffff1690602001909291905050506115c9565b005b34801561071957600080fd5b506107506004803603604081101561073057600080fd5b81019080803590602001909291908035906020019092919050505061171e565b005b34801561075e57600080fd5b5061076761175f565b604051808273ffffffffffffffffffffffffffffffffffffffff1673ffffffffffffffffffffffffffffffffffffffff16815260200191505060405180910390f35b3480156107b557600080fd5b506107e2600480360360208110156107cc57600080fd5b8101908080359060200190929190505050611784565b6040518080602001828103825283818151815260200191508051906020019060200280838360005b8381101561082557808201518184015260208101905061080a565b505050509050019250505060405180910390f35b34801561084557600080fd5b506108726004803603602081101561085c57600080fd5b81019080803590602001909291905050506117ef565b6040518080602001828103825283818151815260200191508051906020019080838360005b838110156108b2578082015181840152602081019050610897565b50505050905090810190601f1680156108df5780820380516001836020036101000a031916815260200191505b509250505060405180910390f35b3480156108f957600080fd5b506109266004803603602081101561091057600080fd5b81019080803590602001909291905050506118a4565b6040518082815260200191505060405180910390f35b34801561094857600080fd5b5061097f6004803603604081101561095f57600080fd5b8101908080359060200190929190803590602001909291905050506118c4565b6040518082815260200191505060405180910390f35b3480156109a157600080fd5b506109f0600480360360408110156109b857600080fd5b81019080803573ffffffffffffffffffffffffffffffffffffffff1690602001909291908035151590602001909291905050506118f9565b005b3480156109fe57600080fd5b50610a3f60048036036060811015610a1557600080fd5b81019080803590602001909291908035906020019092919080359060200190929190505050611acc565b005b348015610a4d57600080fd5b50610a7a60048036036020811015610a6457600080fd5b8101908080359060200190929190505050611be7565b6040518082815260200191505060405180910390f35b348015610a9c57600080fd5b50610b1e60048036036040811015610ab357600080fd5b810190808035906020019092919080359060200190640100000000811115610ada57600080fd5b820183602082011115610aec57600080fd5b80359060200191846020830284011164010000000083111715610b0e57600080fd5b9091929391929390505050611c04565b005b348015610b2c57600080fd5b50610b5960048036036020811015610b4357600080fd5b8101908080359060200190929190505050611d13565b6040518080602001828103825283818151815260200191508051906020019080838360005b83811015610b99578082015181840152602081019050610b7e565b50505050905090810190601f168015610bc65780820380516001836020036101000a031916815260200191505b509250505060405180910390f35b348015610be057600080fd5b50610c2d60048036036040811015610bf757600080fd5b8101908080359060200190929190803573ffffffffffffffffffffffffffffffffffffffff169060200190929190505050611dc8565b005b348015610c3b57600080fd5b50610c7260048036036040811015610c5257600080fd5b810190808035906020019092919080359060200190929190505050611e43565b604051808273ffffffffffffffffffffffffffffffffffffffff1673ffffffffffffffffffffffffffffffffffffffff16815260200191505060405180910390f35b348015610cc057600080fd5b50610d4260048036036040811015610cd757600080fd5b810190808035906020019092919080359060200190640100000000811115610cfe57600080fd5b820183602082011115610d1057600080fd5b80359060200191846020830284011164010000000083111715610d3257600080fd5b9091929391929390505050611e98565b005b348015610d5057600080fd5b50610d9360048036036020811015610d6757600080fd5b81019080803573ffffffffffffffffffffffffffffffffffffffff169060200190929190505050611fa7565b005b600660003373ffffffffffffffffffffffffffffffffffffffff1673ffffffffffffffffffffffffffffffffffffffff16815260200190815260200160002060009054906101000a900460ff161515610e7c576040517f08c379a00000000000000000000000000000000000000000000000000000000081526004018080602001828103825260248152602001807f4572726f723a20416363657373206e6f7420616c6c6f77656420746f2073746f81526020017f726167650000000000000000000000000000000000000000000000000000000081525060400191505060405180910390fd5b806004600085815260200190815260200160002083815481101515610e9d57fe5b9060005260206000200181905550505050565b600460008381526020019081526020016000208190806001815401808255809150509060018203906000526020600020016000909192909190915055505050565b606060046000838152602001908152602001600020805480602002602001604051908101604052809291908181526020018280548015610f5057602002820191906000526020600020905b815481526020019060010190808311610f3c575b50505050509050919050565b600660003373ffffffffffffffffffffffffffffffffffffffff1673ffffffffffffffffffffffffffffffffffffffff16815260200190815260200160002060009054906101000a900460ff161515611043576040517f08c379a00000000000000000000000000000000000000000000000000000000081526004018080602001828103825260248152602001807f4572726f723a20416363657373206e6f7420616c6c6f77656420746f2073746f81526020017f726167650000000000000000000000000000000000000000000000000000000081525060400191505060405180910390fd5b81816002600086815260200190815260200160002091906110659291906120fc565b50505050565b60006001600083815260200190815260200160002054600190049050919050565b600060056000838152602001908152602001600020805490509050919050565b600060036000838152602001908152602001600020805490509050919050565b600660003373ffffffffffffffffffffffffffffffffffffffff1673ffffffffffffffffffffffffffffffffffffffff16815260200190815260200160002060009054906101000a900460ff1615156111b3576040517f08c379a00000000000000000000000000000000000000000000000000000000081526004018080602001828103825260248152602001807f4572726f723a20416363657373206e6f7420616c6c6f77656420746f2073746f81526020017f726167650000000000000000000000000000000000000000000000000000000081525060400191505060405180910390fd5b8060016000848152602001908152602001600020819055505050565b600660003373ffffffffffffffffffffffffffffffffffffffff1673ffffffffffffffffffffffffffffffffffffffff16815260200190815260200160002060009054906101000a900460ff1615156112b6576040517f08c379a00000000000000000000000000000000000000000000000000000000081526004018080602001828103825260248152602001807f4572726f723a20416363657373206e6f7420616c6c6f77656420746f2073746f81526020017f726167650000000000000000000000000000000000000000000000000000000081525060400191505060405180910390fd5b8060010260016000848152602001908152602001600020819055505050565b600660003373ffffffffffffffffffffffffffffffffffffffff1673ffffffffffffffffffffffffffffffffffffffff16815260200190815260200160002060009054906101000a900460ff1615156113bc576040517f08c379a00000000000000000000000000000000000000000000000000000000081526004018080602001828103825260248152602001807f4572726f723a20416363657373206e6f7420616c6c6f77656420746f2073746f81526020017f726167650000000000000000000000000000000000000000000000000000000081525060400191505060405180910390fd5b81816003600086815260200190815260200160002091906113de92919061217c565b50505050565b60606005600083815260200190815260200160002080548060200260200160405190810160405280929190818152602001828054801561147957602002820191906000526020600020905b8160009054906101000a900473ffffffffffffffffffffffffffffffffffffffff1673ffffffffffffffffffffffffffffffffffffffff168152602001906001019080831161142f575b50505050509050919050565b600060036000848152602001908152602001600020828154811015156114a757fe5b9060005260206000200154905092915050565b600660003373ffffffffffffffffffffffffffffffffffffffff1673ffffffffffffffffffffffffffffffffffffffff16815260200190815260200160002060009054906101000a900460ff1615156115a1576040517f08c379a00000000000000000000000000000000000000000000000000000000081526004018080602001828103825260248152602001807f4572726f723a20416363657373206e6f7420616c6c6f77656420746f2073746f81526020017f726167650000000000000000000000000000000000000000000000000000000081525060400191505060405180910390fd5b81816002600086815260200190815260200160002091906115c39291906120fc565b50505050565b600660003373ffffffffffffffffffffffffffffffffffffffff1673ffffffffffffffffffffffffffffffffffffffff16815260200190815260200160002060009054906101000a900460ff1615156116b0576040517f08c379a00000000000000000000000000000000000000000000000000000000081526004018080602001828103825260248152602001807f4572726f723a20416363657373206e6f7420616c6c6f77656420746f2073746f81526020017f726167650000000000000000000000000000000000000000000000000000000081525060400191505060405180910390fd5b8060056000858152602001908152602001600020838154811015156116d157fe5b9060005260206000200160006101000a81548173ffffffffffffffffffffffffffffffffffffffff021916908373ffffffffffffffffffffffffffffffffffffffff160217905550505050565b600360008381526020019081526020016000208190806001815401808255809150509060018203906000526020600020016000909192909190915055505050565b6000809054906101000a900473ffffffffffffffffffffffffffffffffffffffff1681565b6060600360008381526020019081526020016000208054806020026020016040519081016040528092919081815260200182805480156117e357602002820191906000526020600020905b8154815260200190600101908083116117cf575b50505050509050919050565b6060600260008381526020019081526020016000208054600181600116156101000203166002900480601f0160208091040260200160405190810160405280929190818152602001828054600181600116156101000203166002900480156118985780601f1061186d57610100808354040283529160200191611898565b820191906000526020600020905b81548152906001019060200180831161187b57829003601f168201915b50505050509050919050565b600060046000838152602001908152602001600020805490509050919050565b600060046000848152602001908152602001600020828154811015156118e657fe5b9060005260206000200154905092915050565b6000809054906101000a900473ffffffffffffffffffffffffffffffffffffffff1673ffffffffffffffffffffffffffffffffffffffff163373ffffffffffffffffffffffffffffffffffffffff1614151561195457600080fd5b600073ffffffffffffffffffffffffffffffffffffffff168273ffffffffffffffffffffffffffffffffffffffff1614151515611a1f576040517f08c379a000000000000000000000000000000000000000000000000000000000815260040180806020018281038252602f8152602001807f4572726f723a2041646472657373207a65726f20697320696e76616c6964207381526020017f746f7261676520636f6e7472616374000000000000000000000000000000000081525060400191505060405180910390fd5b80600660008473ffffffffffffffffffffffffffffffffffffffff1673ffffffffffffffffffffffffffffffffffffffff16815260200190815260200160002060006101000a81548160ff0219169083151502179055508173ffffffffffffffffffffffffffffffffffffffff167fc139d49f05d574c44ade2e84d6e5ddbab8d65a476d7244af01a64b247788c29782604051808215151515815260200191505060405180910390a25050565b600660003373ffffffffffffffffffffffffffffffffffffffff1673ffffffffffffffffffffffffffffffffffffffff16815260200190815260200160002060009054906101000a900460ff161515611bb3576040517f08c379a00000000000000000000000000000000000000000000000000000000081526004018080602001828103825260248152602001807f4572726f723a20416363657373206e6f7420616c6c6f77656420746f2073746f81526020017f726167650000000000000000000000000000000000000000000000000000000081525060400191505060405180910390fd5b806003600085815260200190815260200160002083815481101515611bd457fe5b9060005260206000200181905550505050565b600060016000838152602001908152602001600020549050919050565b600660003373ffffffffffffffffffffffffffffffffffffffff1673ffffffffffffffffffffffffffffffffffffffff16815260200190815260200160002060009054906101000a900460ff161515611ceb576040517f08c379a00000000000000000000000000000000000000000000000000000000081526004018080602001828103825260248152602001807f4572726f723a20416363657373206e6f7420616c6c6f77656420746f2073746f81526020017f726167650000000000000000000000000000000000000000000000000000000081525060400191505060405180910390fd5b8181600460008681526020019081526020016000209190611d0d9291906121c9565b50505050565b6060600260008381526020019081526020016000208054600181600116156101000203166002900480601f016020809104026020016040519081016040528092919081815260200182805460018160011615610100020316600290048015611dbc5780601f10611d9157610100808354040283529160200191611dbc565b820191906000526020600020905b815481529060010190602001808311611d9f57829003601f168201915b50505050509050919050565b600560008381526020019081526020016000208190806001815401808255809150509060018203906000526020600020016000909192909190916101000a81548173ffffffffffffffffffffffffffffffffffffffff021916908373ffffffffffffffffffffffffffffffffffffffff160217905550505050565b60006005600084815260200190815260200160002082815481101515611e6557fe5b9060005260206000200160009054906101000a900473ffffffffffffffffffffffffffffffffffffffff16905092915050565b600660003373ffffffffffffffffffffffffffffffffffffffff1673ffffffffffffffffffffffffffffffffffffffff16815260200190815260200160002060009054906101000a900460ff161515611f7f576040517f08c379a00000000000000000000000000000000000000000000000000000000081526004018080602001828103825260248152602001807f4572726f723a20416363657373206e6f7420616c6c6f77656420746f2073746f81526020017f726167650000000000000000000000000000000000000000000000000000000081525060400191505060405180910390fd5b8181600560008681526020019081526020016000209190611fa1929190612216565b50505050565b6000809054906101000a900473ffffffffffffffffffffffffffffffffffffffff1673ffffffffffffffffffffffffffffffffffffffff163373ffffffffffffffffffffffffffffffffffffffff1614151561200257600080fd5b600073ffffffffffffffffffffffffffffffffffffffff168173ffffffffffffffffffffffffffffffffffffffff161415151561203e57600080fd5b8073ffffffffffffffffffffffffffffffffffffffff166000809054906101000a900473ffffffffffffffffffffffffffffffffffffffff1673ffffffffffffffffffffffffffffffffffffffff167f8be0079c531659141344cd1fd0a4f28419497f9722a3daafe3b4186f6b6457e060405160405180910390a3806000806101000a81548173ffffffffffffffffffffffffffffffffffffffff021916908373ffffffffffffffffffffffffffffffffffffffff16021790555050565b828054600181600116156101000203166002900490600052602060002090601f016020900481019282601f1061213d57803560ff191683800117855561216b565b8280016001018555821561216b579182015b8281111561216a57823582559160200191906001019061214f565b5b50905061217891906122b6565b5090565b8280548282559060005260206000209081019282156121b8579160200282015b828111156121b757823582559160200191906001019061219c565b5b5090506121c591906122db565b5090565b828054828255906000526020600020908101928215612205579160200282015b828111156122045782358255916020019190600101906121e9565b5b5090506122129190612300565b5090565b8280548282559060005260206000209081019282156122a5579160200282015b828111156122a457823573ffffffffffffffffffffffffffffffffffffffff168260006101000a81548173ffffffffffffffffffffffffffffffffffffffff021916908373ffffffffffffffffffffffffffffffffffffffff16021790555091602001919060010190612236565b5b5090506122b29190612325565b5090565b6122d891905b808211156122d45760008160009055506001016122bc565b5090565b90565b6122fd91905b808211156122f95760008160009055506001016122e1565b5090565b90565b61232291905b8082111561231e576000816000905550600101612306565b5090565b90565b61236591905b8082111561236157600081816101000a81549073ffffffffffffffffffffffffffffffffffffffff02191690555060010161232b565b5090565b9056fea165627a7a723058200519359946fc340f4304942bf5a9d1aad36e5e95db56897b3a84a5524a2204a40029",
  "linkReferences": {},
  "deployedLinkReferences": {}
}