{
  "_format": "hh-sol-artifact-1",
  "contractName": "Registry",
  "sourceName": "contracts/platform/registry/Registry.sol",
  "abi": [
    {
      "constant": true,
      "inputs": [
        {
          "name": "oracleAddress",
          "type": "address"
        }
      ],
      "name": "isProviderInitiated",
      "outputs": [
        {
          "name": "",
          "type": "bool"
        }
      ],
      "payable": false,
      "stateMutability": "view",
      "type": "function"
    },
    {
      "constant": true,
      "inputs": [
        {
          "name": "provider",
          "type": "address"
        },
        {
          "name": "endpoint",
          "type": "bytes32"
        }
      ],
      "name": "getProviderCurve",
      "outputs": [
        {
          "name": "",
          "type": "int256[]"
        }
      ],
      "payable": false,
      "stateMutability": "view",
      "type": "function"
    },
    {
      "constant": false,
      "inputs": [
        {
          "name": "endpoint",
          "type": "bytes32"
        },
        {
          "name": "curve",
          "type": "int256[]"
        },
        {
          "name": "broker",
          "type": "address"
        }
      ],
      "name": "initiateProviderCurve",
      "outputs": [
        {
          "name": "",
          "type": "bool"
        }
      ],
      "payable": false,
      "stateMutability": "nonpayable",
      "type": "function"
    },
    {
      "constant": true,
      "inputs": [
        {
          "name": "provider",
          "type": "address"
        }
      ],
      "name": "getAllProviderParams",
      "outputs": [
        {
          "name": "",
          "type": "bytes32[]"
        }
      ],
      "payable": false,
      "stateMutability": "view",
      "type": "function"
    },
    {
      "constant": true,
      "inputs": [],
      "name": "db",
      "outputs": [
        {
          "name": "",
          "type": "address"
        }
      ],
      "payable": false,
      "stateMutability": "view",
      "type": "function"
    },
    {
      "constant": true,
      "inputs": [
        {
          "name": "provider",
          "type": "address"
        },
        {
          "name": "key",
          "type": "bytes32"
        }
      ],
      "name": "getProviderParameter",
      "outputs": [
        {
          "name": "",
          "type": "bytes"
        }
      ],
      "payable": false,
      "stateMutability": "view",
      "type": "function"
    },
    {
      "constant": true,
      "inputs": [
        {
          "name": "provider",
          "type": "address"
        }
      ],
      "name": "getProviderPublicKey",
      "outputs": [
        {
          "name": "",
          "type": "uint256"
        }
      ],
      "payable": false,
      "stateMutability": "view",
      "type": "function"
    },
    {
      "constant": true,
      "inputs": [
        {
          "name": "provider",
          "type": "address"
        }
      ],
      "name": "getProviderTitle",
      "outputs": [
        {
          "name": "",
          "type": "bytes32"
        }
      ],
      "payable": false,
      "stateMutability": "view",
      "type": "function"
    },
    {
      "constant": true,
      "inputs": [
        {
          "name": "provider",
          "type": "address"
        },
        {
          "name": "endpoint",
          "type": "bytes32"
        }
      ],
      "name": "getCurveUnset",
      "outputs": [
        {
          "name": "",
          "type": "bool"
        }
      ],
      "payable": false,
      "stateMutability": "view",
      "type": "function"
    },
    {
      "constant": false,
      "inputs": [
        {
          "name": "key",
          "type": "bytes32"
        },
        {
          "name": "value",
          "type": "bytes"
        }
      ],
      "name": "setProviderParameter",
      "outputs": [],
      "payable": false,
      "stateMutability": "nonpayable",
      "type": "function"
    },
    {
      "constant": true,
      "inputs": [],
      "name": "getAllOracles",
      "outputs": [
        {
          "name": "",
          "type": "address[]"
        }
      ],
      "payable": false,
      "stateMutability": "view",
      "type": "function"
    },
    {
      "constant": false,
      "inputs": [],
      "name": "updateDependencies",
      "outputs": [],
      "payable": false,
      "stateMutability": "nonpayable",
      "type": "function"
    },
    {
      "constant": true,
      "inputs": [
        {
          "name": "provider",
          "type": "address"
        }
      ],
      "name": "getPublicKey",
      "outputs": [
        {
          "name": "",
          "type": "uint256"
        }
      ],
      "payable": false,
      "stateMutability": "view",
      "type": "function"
    },
    {
      "constant": true,
      "inputs": [
        {
          "name": "provider",
          "type": "address"
        },
        {
          "name": "endpoint",
          "type": "bytes32"
        }
      ],
      "name": "getProviderCurveLength",
      "outputs": [
        {
          "name": "",
          "type": "uint256"
        }
      ],
      "payable": false,
      "stateMutability": "view",
      "type": "function"
    },
    {
      "constant": true,
      "inputs": [],
      "name": "owner",
      "outputs": [
        {
          "name": "",
          "type": "address"
        }
      ],
      "payable": false,
      "stateMutability": "view",
      "type": "function"
    },
    {
      "constant": false,
      "inputs": [
        {
          "name": "endpoint",
          "type": "bytes32"
        }
      ],
      "name": "clearEndpoint",
      "outputs": [],
      "payable": false,
      "stateMutability": "nonpayable",
      "type": "function"
    },
    {
      "constant": true,
      "inputs": [
        {
          "name": "index",
          "type": "uint256"
        }
      ],
      "name": "getOracleAddress",
      "outputs": [
        {
          "name": "",
          "type": "address"
        }
      ],
      "payable": false,
      "stateMutability": "view",
      "type": "function"
    },
    {
      "constant": true,
      "inputs": [
        {
          "name": "oracleAddress",
          "type": "address"
        },
        {
          "name": "endpoint",
          "type": "bytes32"
        }
      ],
      "name": "getEndpointBroker",
      "outputs": [
        {
          "name": "",
          "type": "address"
        }
      ],
      "payable": false,
      "stateMutability": "view",
      "type": "function"
    },
    {
      "constant": false,
      "inputs": [],
      "name": "selfDestruct",
      "outputs": [],
      "payable": false,
      "stateMutability": "nonpayable",
      "type": "function"
    },
    {
      "constant": true,
      "inputs": [
        {
          "name": "provider",
          "type": "address"
        }
      ],
      "name": "getProviderEndpoints",
      "outputs": [
        {
          "name": "",
          "type": "bytes32[]"
        }
      ],
      "payable": false,
      "stateMutability": "view",
      "type": "function"
    },
    {
      "constant": false,
      "inputs": [
        {
          "name": "publicKey",
          "type": "uint256"
        },
        {
          "name": "title",
          "type": "bytes32"
        }
      ],
      "name": "initiateProvider",
      "outputs": [
        {
          "name": "",
          "type": "bool"
        }
      ],
      "payable": false,
      "stateMutability": "nonpayable",
      "type": "function"
    },
    {
      "constant": true,
      "inputs": [
        {
          "name": "source",
          "type": "string"
        }
      ],
      "name": "stringToBytes32",
      "outputs": [
        {
          "name": "result",
          "type": "bytes32"
        }
      ],
      "payable": false,
      "stateMutability": "pure",
      "type": "function"
    },
    {
      "constant": true,
      "inputs": [
        {
          "name": "provider",
          "type": "address"
        },
        {
          "name": "endpoint",
          "type": "bytes32"
        }
      ],
      "name": "getEndpointParams",
      "outputs": [
        {
          "name": "",
          "type": "bytes32[]"
        }
      ],
      "payable": false,
      "stateMutability": "view",
      "type": "function"
    },
    {
      "constant": false,
      "inputs": [
        {
          "name": "newOwner",
          "type": "address"
        }
      ],
      "name": "transferOwnership",
      "outputs": [],
      "payable": false,
      "stateMutability": "nonpayable",
      "type": "function"
    },
    {
      "constant": true,
      "inputs": [
        {
          "name": "provider",
          "type": "address"
        }
      ],
      "name": "getTitle",
      "outputs": [
        {
          "name": "",
          "type": "bytes32"
        }
      ],
      "payable": false,
      "stateMutability": "view",
      "type": "function"
    },
    {
      "constant": false,
      "inputs": [
        {
          "name": "title",
          "type": "bytes32"
        }
      ],
      "name": "setProviderTitle",
      "outputs": [],
      "payable": false,
      "stateMutability": "nonpayable",
      "type": "function"
    },
    {
      "constant": false,
      "inputs": [
        {
          "name": "endpoint",
          "type": "bytes32"
        },
        {
          "name": "endpointParams",
          "type": "bytes32[]"
        }
      ],
      "name": "setEndpointParams",
      "outputs": [],
      "payable": false,
      "stateMutability": "nonpayable",
      "type": "function"
    },
    {
      "inputs": [
        {
          "name": "c",
          "type": "address"
        }
      ],
      "payable": false,
      "stateMutability": "nonpayable",
      "type": "constructor"
    },
    {
      "anonymous": false,
      "inputs": [
        {
          "indexed": true,
          "name": "provider",
          "type": "address"
        },
        {
          "indexed": true,
          "name": "title",
          "type": "bytes32"
        }
      ],
      "name": "NewProvider",
      "type": "event"
    },
    {
      "anonymous": false,
      "inputs": [
        {
          "indexed": true,
          "name": "provider",
          "type": "address"
        },
        {
          "indexed": true,
          "name": "endpoint",
          "type": "bytes32"
        },
        {
          "indexed": false,
          "name": "curve",
          "type": "int256[]"
        },
        {
          "indexed": true,
          "name": "broker",
          "type": "address"
        }
      ],
      "name": "NewCurve",
      "type": "event"
    },
    {
      "anonymous": false,
      "inputs": [
        {
          "indexed": true,
          "name": "previousOwner",
          "type": "address"
        },
        {
          "indexed": true,
          "name": "newOwner",
          "type": "address"
        }
      ],
      "name": "OwnershipTransferred",
      "type": "event"
    }
  ],
  "bytecode": "0x60806040523480156200001157600080fd5b5060405160208062005187833981018060405260208110156200003357600080fd5b810190808051906020019092919050505080336000806101000a81548173ffffffffffffffffffffffffffffffffffffffff021916908373ffffffffffffffffffffffffffffffffffffffff16021790555080600160006101000a81548173ffffffffffffffffffffffffffffffffffffffff021916908373ffffffffffffffffffffffffffffffffffffffff16021790555080600260006101000a81548173ffffffffffffffffffffffffffffffffffffffff021916908373ffffffffffffffffffffffffffffffffffffffff160217905550506200012162000128640100000000026401000000009004565b506200026e565b6000600260009054906101000a900473ffffffffffffffffffffffffffffffffffffffff1673ffffffffffffffffffffffffffffffffffffffff1663358177736040518163ffffffff167c01000000000000000000000000000000000000000000000000000000000281526004018080602001828103825260088152602001807f444154414241534500000000000000000000000000000000000000000000000081525060200191505060206040518083038186803b158015620001eb57600080fd5b505afa15801562000200573d6000803e3d6000fd5b505050506040513d60208110156200021757600080fd5b8101908080519060200190929190505050905080600360006101000a81548173ffffffffffffffffffffffffffffffffffffffff021916908373ffffffffffffffffffffffffffffffffffffffff16021790555050565b614f09806200027e6000396000f3fe608060405260043610610159576000357c010000000000000000000000000000000000000000000000000000000090048063186b79c91461015e5780632316a9ff146101c7578063238b3aed14610277578063275601f61461037e5780634d655aff146104245780634d9bcac41461047b5780634ff6e86e1461054f5780635481f43e146105b457806354a365df146106195780635750644a1461068c57806365a6bb291461075e5780636e5ecdff146107ca578063857cdbb8146107e157806387cd29a4146108465780638da5cb5b146108b55780638dc8d32b1461090c5780639217c438146109475780639c39c8ea146109c25780639cb8a26a14610a5d578063a72460d114610a74578063af87c83314610b1a578063cfb5192814610b77578063e95d618214610c53578063f2fde38b14610d03578063f51d7d5f14610d54578063f5d1d29914610db9578063fcf0c24814610df4575b600080fd5b34801561016a57600080fd5b506101ad6004803603602081101561018157600080fd5b81019080803573ffffffffffffffffffffffffffffffffffffffff169060200190929190505050610ec3565b604051808215151515815260200191505060405180910390f35b3480156101d357600080fd5b50610220600480360360408110156101ea57600080fd5b81019080803573ffffffffffffffffffffffffffffffffffffffff16906020019092919080359060200190929190505050610edb565b6040518080602001828103825283818151815260200191508051906020019060200280838360005b83811015610263578082015181840152602081019050610248565b505050509050019250505060405180910390f35b34801561028357600080fd5b506103646004803603606081101561029a57600080fd5b8101908080359060200190929190803590602001906401000000008111156102c157600080fd5b8201836020820111156102d357600080fd5b803590602001918460208302840111640100000000831117156102f557600080fd5b919080806020026020016040519081016040528093929190818152602001838360200280828437600081840152601f19601f820116905080830192505050505050509192919290803573ffffffffffffffffffffffffffffffffffffffff16906020019092919050505061113d565b604051808215151515815260200191505060405180910390f35b34801561038a57600080fd5b506103cd600480360360208110156103a157600080fd5b81019080803573ffffffffffffffffffffffffffffffffffffffff1690602001909291905050506116ed565b6040518080602001828103825283818151815260200191508051906020019060200280838360005b838110156104105780820151818401526020810190506103f5565b505050509050019250505060405180910390f35b34801561043057600080fd5b5061043961196a565b604051808273ffffffffffffffffffffffffffffffffffffffff1673ffffffffffffffffffffffffffffffffffffffff16815260200191505060405180910390f35b34801561048757600080fd5b506104d46004803603604081101561049e57600080fd5b81019080803573ffffffffffffffffffffffffffffffffffffffff16906020019092919080359060200190929190505050611990565b6040518080602001828103825283818151815260200191508051906020019080838360005b838110156105145780820151818401526020810190506104f9565b50505050905090810190601f1680156105415780820380516001836020036101000a031916815260200191505b509250505060405180910390f35b34801561055b57600080fd5b5061059e6004803603602081101561057257600080fd5b81019080803573ffffffffffffffffffffffffffffffffffffffff169060200190929190505050611cba565b6040518082815260200191505060405180910390f35b3480156105c057600080fd5b50610603600480360360208110156105d757600080fd5b81019080803573ffffffffffffffffffffffffffffffffffffffff169060200190929190505050611ccc565b6040518082815260200191505060405180910390f35b34801561062557600080fd5b506106726004803603604081101561063c57600080fd5b81019080803573ffffffffffffffffffffffffffffffffffffffff16906020019092919080359060200190929190505050611cde565b604051808215151515815260200191505060405180910390f35b34801561069857600080fd5b5061075c600480360360408110156106af57600080fd5b8101908080359060200190929190803590602001906401000000008111156106d657600080fd5b8201836020820111156106e857600080fd5b8035906020019184600183028401116401000000008311171561070a57600080fd5b91908080601f016020809104026020016040519081016040528093929190818152602001838380828437600081840152601f19601f820116905080830192505050505050509192919290505050611e6d565b005b34801561076a57600080fd5b506107736123c1565b6040518080602001828103825283818151815260200191508051906020019060200280838360005b838110156107b657808201518184015260208101905061079b565b505050509050019250505060405180910390f35b3480156107d657600080fd5b506107df61252e565b005b3480156107ed57600080fd5b506108306004803603602081101561080457600080fd5b81019080803573ffffffffffffffffffffffffffffffffffffffff1690602001909291905050506125fd565b6040518082815260200191505060405180910390f35b34801561085257600080fd5b5061089f6004803603604081101561086957600080fd5b81019080803573ffffffffffffffffffffffffffffffffffffffff16906020019092919080359060200190929190505050612781565b6040518082815260200191505060405180910390f35b3480156108c157600080fd5b506108ca6129e4565b604051808273ffffffffffffffffffffffffffffffffffffffff1673ffffffffffffffffffffffffffffffffffffffff16815260200191505060405180910390f35b34801561091857600080fd5b506109456004803603602081101561092f57600080fd5b8101908080359060200190929190505050612a09565b005b34801561095357600080fd5b506109806004803603602081101561096a57600080fd5b81019080803590602001909291905050506134c1565b604051808273ffffffffffffffffffffffffffffffffffffffff1673ffffffffffffffffffffffffffffffffffffffff16815260200191505060405180910390f35b3480156109ce57600080fd5b50610a1b600480360360408110156109e557600080fd5b81019080803573ffffffffffffffffffffffffffffffffffffffff169060200190929190803590602001909291905050506135e2565b604051808273ffffffffffffffffffffffffffffffffffffffff1673ffffffffffffffffffffffffffffffffffffffff16815260200191505060405180910390f35b348015610a6957600080fd5b50610a72613773565b005b348015610a8057600080fd5b50610ac360048036036020811015610a9757600080fd5b81019080803573ffffffffffffffffffffffffffffffffffffffff169060200190929190505050613808565b6040518080602001828103825283818151815260200191508051906020019060200280838360005b83811015610b06578082015181840152602081019050610aeb565b505050509050019250505060405180910390f35b348015610b2657600080fd5b50610b5d60048036036040811015610b3d57600080fd5b8101908080359060200190929190803590602001909291905050506139e2565b604051808215151515815260200191505060405180910390f35b348015610b8357600080fd5b50610c3d60048036036020811015610b9a57600080fd5b8101908080359060200190640100000000811115610bb757600080fd5b820183602082011115610bc957600080fd5b80359060200191846001830284011164010000000083111715610beb57600080fd5b91908080601f016020809104026020016040519081016040528093929190818152602001838380828437600081840152601f19601f820116905080830192505050505050509192919290505050613aea565b6040518082815260200191505060405180910390f35b348015610c5f57600080fd5b50610cac60048036036040811015610c7657600080fd5b81019080803573ffffffffffffffffffffffffffffffffffffffff16906020019092919080359060200190929190505050613b16565b6040518080602001828103825283818151815260200191508051906020019060200280838360005b83811015610cef578082015181840152602081019050610cd4565b505050509050019250505060405180910390f35b348015610d0f57600080fd5b50610d5260048036036020811015610d2657600080fd5b81019080803573ffffffffffffffffffffffffffffffffffffffff169060200190929190505050613cf9565b005b348015610d6057600080fd5b50610da360048036036020811015610d7757600080fd5b81019080803573ffffffffffffffffffffffffffffffffffffffff169060200190929190505050613e4e565b6040518082815260200191505060405180910390f35b348015610dc557600080fd5b50610df260048036036020811015610ddc57600080fd5b8101908080359060200190929190505050613fd2565b005b348015610e0057600080fd5b50610ec160048036036040811015610e1757600080fd5b810190808035906020019092919080359060200190640100000000811115610e3e57600080fd5b820183602082011115610e5057600080fd5b80359060200191846020830284011164010000000083111715610e7257600080fd5b919080806020026020016040519081016040528093929190818152602001838360200280828437600081840152601f19601f8201169050808301925050505050505091929192905050506141b4565b005b600080600102610ed283611ccc565b14159050919050565b6060610ee78383611cde565b151515610f5c576040517f08c379a000000000000000000000000000000000000000000000000000000000815260040180806020018281038252601b8152602001807f4572726f723a204375727665206973206e6f742079657420736574000000000081525060200191505060405180910390fd5b600360009054906101000a900473ffffffffffffffffffffffffffffffffffffffff1673ffffffffffffffffffffffffffffffffffffffff16632d2899b6848460405160200180807f6f7261636c6573000000000000000000000000000000000000000000000000008152506007018373ffffffffffffffffffffffffffffffffffffffff1673ffffffffffffffffffffffffffffffffffffffff166c01000000000000000000000000028152601401807f637572766573000000000000000000000000000000000000000000000000000081525060060182815260200192505050604051602081830303815290604052805190602001206040518263ffffffff167c01000000000000000000000000000000000000000000000000000000000281526004018082815260200191505060006040518083038186803b1580156110a457600080fd5b505afa1580156110b8573d6000803e3d6000fd5b505050506040513d6000823e3d601f19601f8201168201806040525060208110156110e257600080fd5b8101908080516401000000008111156110fa57600080fd5b8281019050602081018481111561111057600080fd5b815185602082028301116401000000008211171561112d57600080fd5b5050929190505050905092915050565b600061114833610ec3565b15156111e2576040517f08c379a00000000000000000000000000000000000000000000000000000000081526004018080602001828103825260248152602001807f4572726f723a2050726f7669646572206973206e6f742079657420696e69746981526020017f617465640000000000000000000000000000000000000000000000000000000081525060400191505060405180910390fd5b6111ec3385611cde565b1515611260576040517f08c379a000000000000000000000000000000000000000000000000000000000815260040180806020018281038252601b8152602001807f4572726f723a20437572766520697320616c726561647920736574000000000081525060200191505060405180910390fd5b60006001028414151515611302576040517f08c379a00000000000000000000000000000000000000000000000000000000081526004018080602001828103825260238152602001807f4572726f723a2043616e277420696e697469617465206e756c6c20656e64706f81526020017f696e74000000000000000000000000000000000000000000000000000000000081525060400191505060405180910390fd5b61130d338585614485565b600360009054906101000a900473ffffffffffffffffffffffffffffffffffffffff1673ffffffffffffffffffffffffffffffffffffffff16638d152d783360405160200180807f6f7261636c6573000000000000000000000000000000000000000000000000008152506007018273ffffffffffffffffffffffffffffffffffffffff1673ffffffffffffffffffffffffffffffffffffffff166c01000000000000000000000000028152601401807f656e64706f696e7473000000000000000000000000000000000000000000000081525060090191505060405160208183030381529060405280519060200120866040518363ffffffff167c01000000000000000000000000000000000000000000000000000000000281526004018083815260200182815260200192505050600060405180830381600087803b15801561145757600080fd5b505af115801561146b573d6000803e3d6000fd5b50505050600360009054906101000a900473ffffffffffffffffffffffffffffffffffffffff1673ffffffffffffffffffffffffffffffffffffffff16634e91db08338660405160200180807f6f7261636c6573000000000000000000000000000000000000000000000000008152506007018373ffffffffffffffffffffffffffffffffffffffff1673ffffffffffffffffffffffffffffffffffffffff166c01000000000000000000000000028152601401828152602001807f62726f6b6572000000000000000000000000000000000000000000000000000081525060060192505050604051602081830303815290604052805190602001206115ca85604051602001808273ffffffffffffffffffffffffffffffffffffffff1673ffffffffffffffffffffffffffffffffffffffff166c01000000000000000000000000028152601401915050604051602081830303815290604052613aea565b6040518363ffffffff167c01000000000000000000000000000000000000000000000000000000000281526004018083815260200182815260200192505050600060405180830381600087803b15801561162357600080fd5b505af1158015611637573d6000803e3d6000fd5b505050508173ffffffffffffffffffffffffffffffffffffffff16843373ffffffffffffffffffffffffffffffffffffffff167fadd7c8d34ea3b815721e4441e9d375f523912507ae885dfabba0d2e892ca350c866040518080602001828103825283818151815260200191508051906020019060200280838360005b838110156116cf5780820151818401526020810190506116b4565b505050509050019250505060405180910390a4600190509392505050565b60606116f882610ec3565b1515611792576040517f08c379a00000000000000000000000000000000000000000000000000000000081526004018080602001828103825260248152602001807f4572726f723a2050726f7669646572206973206e6f742079657420696e69746981526020017f617465640000000000000000000000000000000000000000000000000000000081525060400191505060405180910390fd5b600360009054906101000a900473ffffffffffffffffffffffffffffffffffffffff1673ffffffffffffffffffffffffffffffffffffffff16638db0e83b8360405160200180807f6f7261636c6573000000000000000000000000000000000000000000000000008152506007018273ffffffffffffffffffffffffffffffffffffffff1673ffffffffffffffffffffffffffffffffffffffff166c01000000000000000000000000028152601401807f70726f7669646572506172616d73000000000000000000000000000000000000815250600e01915050604051602081830303815290604052805190602001206040518263ffffffff167c01000000000000000000000000000000000000000000000000000000000281526004018082815260200191505060006040518083038186803b1580156118d257600080fd5b505afa1580156118e6573d6000803e3d6000fd5b505050506040513d6000823e3d601f19601f82011682018060405250602081101561191057600080fd5b81019080805164010000000081111561192857600080fd5b8281019050602081018481111561193e57600080fd5b815185602082028301116401000000008211171561195b57600080fd5b50509291905050509050919050565b600360009054906101000a900473ffffffffffffffffffffffffffffffffffffffff1681565b606061199b83610ec3565b1515611a35576040517f08c379a00000000000000000000000000000000000000000000000000000000081526004018080602001828103825260248152602001807f4572726f723a2050726f7669646572206973206e6f742079657420696e69746981526020017f617465640000000000000000000000000000000000000000000000000000000081525060400191505060405180910390fd5b611a3f8383614808565b1515611ad9576040517f08c379a00000000000000000000000000000000000000000000000000000000081526004018080602001828103825260308152602001807f4572726f723a2050726f766964657220506172616d65746572206973206e6f7481526020017f2079657420696e697469616c697a65640000000000000000000000000000000081525060400191505060405180910390fd5b600360009054906101000a900473ffffffffffffffffffffffffffffffffffffffff1673ffffffffffffffffffffffffffffffffffffffff1663c031a180848460405160200180807f6f7261636c6573000000000000000000000000000000000000000000000000008152506007018373ffffffffffffffffffffffffffffffffffffffff1673ffffffffffffffffffffffffffffffffffffffff166c01000000000000000000000000028152601401807f70726f7669646572506172616d73000000000000000000000000000000000000815250600e0182815260200192505050604051602081830303815290604052805190602001206040518263ffffffff167c01000000000000000000000000000000000000000000000000000000000281526004018082815260200191505060006040518083038186803b158015611c2157600080fd5b505afa158015611c35573d6000803e3d6000fd5b505050506040513d6000823e3d601f19601f820116820180604052506020811015611c5f57600080fd5b810190808051640100000000811115611c7757600080fd5b82810190506020810184811115611c8d57600080fd5b8151856001820283011164010000000082111715611caa57600080fd5b5050929190505050905092915050565b6000611cc5826125fd565b9050919050565b6000611cd782613e4e565b9050919050565b600080600360009054906101000a900473ffffffffffffffffffffffffffffffffffffffff1673ffffffffffffffffffffffffffffffffffffffff1663a21a65ae858560405160200180807f6f7261636c6573000000000000000000000000000000000000000000000000008152506007018373ffffffffffffffffffffffffffffffffffffffff1673ffffffffffffffffffffffffffffffffffffffff166c01000000000000000000000000028152601401807f637572766573000000000000000000000000000000000000000000000000000081525060060182815260200192505050604051602081830303815290604052805190602001206040518263ffffffff167c01000000000000000000000000000000000000000000000000000000000281526004018082815260200191505060206040518083038186803b158015611e2957600080fd5b505afa158015611e3d573d6000803e3d6000fd5b505050506040513d6020811015611e5357600080fd5b810190808051906020019092919050505014905092915050565b611e7633610ec3565b1515611f10576040517f08c379a00000000000000000000000000000000000000000000000000000000081526004018080602001828103825260248152602001807f4572726f723a2050726f7669646572206973206e6f742079657420696e69746981526020017f617465640000000000000000000000000000000000000000000000000000000081525060400191505060405180910390fd5b611f1a3383614808565b15156121ee57600360009054906101000a900473ffffffffffffffffffffffffffffffffffffffff1673ffffffffffffffffffffffffffffffffffffffff166354c552db338460405160200180807f6f7261636c6573000000000000000000000000000000000000000000000000008152506007018373ffffffffffffffffffffffffffffffffffffffff1673ffffffffffffffffffffffffffffffffffffffff166c01000000000000000000000000028152601401807f69735f706172616d5f7365740000000000000000000000000000000000000000815250600c01828152602001925050506040516020818303038152906040528051906020012060016040518363ffffffff167c01000000000000000000000000000000000000000000000000000000000281526004018083815260200182815260200192505050600060405180830381600087803b15801561207357600080fd5b505af1158015612087573d6000803e3d6000fd5b50505050600360009054906101000a900473ffffffffffffffffffffffffffffffffffffffff1673ffffffffffffffffffffffffffffffffffffffff16638d152d783360405160200180807f6f7261636c6573000000000000000000000000000000000000000000000000008152506007018273ffffffffffffffffffffffffffffffffffffffff1673ffffffffffffffffffffffffffffffffffffffff166c01000000000000000000000000028152601401807f70726f7669646572506172616d73000000000000000000000000000000000000815250600e0191505060405160208183030381529060405280519060200120846040518363ffffffff167c01000000000000000000000000000000000000000000000000000000000281526004018083815260200182815260200192505050600060405180830381600087803b1580156121d557600080fd5b505af11580156121e9573d6000803e3d6000fd5b505050505b600360009054906101000a900473ffffffffffffffffffffffffffffffffffffffff1673ffffffffffffffffffffffffffffffffffffffff16632e28d084338460405160200180807f6f7261636c6573000000000000000000000000000000000000000000000000008152506007018373ffffffffffffffffffffffffffffffffffffffff1673ffffffffffffffffffffffffffffffffffffffff166c01000000000000000000000000028152601401807f70726f7669646572506172616d73000000000000000000000000000000000000815250600e018281526020019250505060405160208183030381529060405280519060200120836040518363ffffffff167c01000000000000000000000000000000000000000000000000000000000281526004018083815260200180602001828103825283818151815260200191508051906020019080838360005b8381101561235857808201518184015260208101905061233d565b50505050905090810190601f1680156123855780820380516001836020036101000a031916815260200191505b509350505050600060405180830381600087803b1580156123a557600080fd5b505af11580156123b9573d6000803e3d6000fd5b505050505050565b6060600360009054906101000a900473ffffffffffffffffffffffffffffffffffffffff1673ffffffffffffffffffffffffffffffffffffffff16635948f73360405160200180807f6f7261636c65496e646578000000000000000000000000000000000000000000815250600b019050604051602081830303815290604052805190602001206040518263ffffffff167c01000000000000000000000000000000000000000000000000000000000281526004018082815260200191505060006040518083038186803b15801561249857600080fd5b505afa1580156124ac573d6000803e3d6000fd5b505050506040513d6000823e3d601f19601f8201168201806040525060208110156124d657600080fd5b8101908080516401000000008111156124ee57600080fd5b8281019050602081018481111561250457600080fd5b815185602082028301116401000000008211171561252157600080fd5b5050929190505050905090565b600160009054906101000a900473ffffffffffffffffffffffffffffffffffffffff1673ffffffffffffffffffffffffffffffffffffffff163373ffffffffffffffffffffffffffffffffffffffff161415156125f3576040517f08c379a00000000000000000000000000000000000000000000000000000000081526004018080602001828103825260208152602001807f4572726f723a20436f6f7264696e61746f72204f6e6c792046756e6374696f6e81525060200191505060405180910390fd5b6125fb6149ab565b565b6000600360009054906101000a900473ffffffffffffffffffffffffffffffffffffffff1673ffffffffffffffffffffffffffffffffffffffff16632ecb0d648360405160200180807f6f7261636c6573000000000000000000000000000000000000000000000000008152506007018273ffffffffffffffffffffffffffffffffffffffff1673ffffffffffffffffffffffffffffffffffffffff166c01000000000000000000000000028152601401807f7075626c69634b65790000000000000000000000000000000000000000000000815250600901915050604051602081830303815290604052805190602001206040518263ffffffff167c01000000000000000000000000000000000000000000000000000000000281526004018082815260200191505060206040518083038186803b15801561273f57600080fd5b505afa158015612753573d6000803e3d6000fd5b505050506040513d602081101561276957600080fd5b81019080805190602001909291905050509050919050565b600061278d8383611cde565b151515612802576040517f08c379a000000000000000000000000000000000000000000000000000000000815260040180806020018281038252601b8152602001807f4572726f723a204375727665206973206e6f742079657420736574000000000081525060200191505060405180910390fd5b600360009054906101000a900473ffffffffffffffffffffffffffffffffffffffff1673ffffffffffffffffffffffffffffffffffffffff16632d2899b6848460405160200180807f6f7261636c6573000000000000000000000000000000000000000000000000008152506007018373ffffffffffffffffffffffffffffffffffffffff1673ffffffffffffffffffffffffffffffffffffffff166c01000000000000000000000000028152601401807f637572766573000000000000000000000000000000000000000000000000000081525060060182815260200192505050604051602081830303815290604052805190602001206040518263ffffffff167c01000000000000000000000000000000000000000000000000000000000281526004018082815260200191505060006040518083038186803b15801561294a57600080fd5b505afa15801561295e573d6000803e3d6000fd5b505050506040513d6000823e3d601f19601f82011682018060405250602081101561298857600080fd5b8101908080516401000000008111156129a057600080fd5b828101905060208101848111156129b657600080fd5b81518560208202830111640100000000821117156129d357600080fd5b505092919050505051905092915050565b6000809054906101000a900473ffffffffffffffffffffffffffffffffffffffff1681565b612a1233610ec3565b1515612a86576040517f08c379a00000000000000000000000000000000000000000000000000000000081526004018080602001828103825260208152602001807f4572726f723a2050726f7669646572206973206e6f7420696e6974696174656481525060200191505060405180910390fd5b6000600360009054906101000a900473ffffffffffffffffffffffffffffffffffffffff1673ffffffffffffffffffffffffffffffffffffffff16632ecb0d64338460405160200180807f746f74616c426f756e6400000000000000000000000000000000000000000000815250600a018373ffffffffffffffffffffffffffffffffffffffff1673ffffffffffffffffffffffffffffffffffffffff166c0100000000000000000000000002815260140182815260200192505050604051602081830303815290604052805190602001206040518263ffffffff167c01000000000000000000000000000000000000000000000000000000000281526004018082815260200191505060206040518083038186803b158015612ba857600080fd5b505afa158015612bbc573d6000803e3d6000fd5b505050506040513d6020811015612bd257600080fd5b81019080805190602001909291905050509050600081141515612c83576040517f08c379a00000000000000000000000000000000000000000000000000000000081526004018080602001828103825260228152602001807f4572726f723a20456e64706f696e74206d7573742068617665206e6f20626f6e81526020017f647300000000000000000000000000000000000000000000000000000000000081525060400191505060405180910390fd5b60606000604051908082528060200260200182016040528015612cb55781602001602082028038833980820191505090505b5090506060600360009054906101000a900473ffffffffffffffffffffffffffffffffffffffff1673ffffffffffffffffffffffffffffffffffffffff16638db0e83b3360405160200180807f6f7261636c6573000000000000000000000000000000000000000000000000008152506007018273ffffffffffffffffffffffffffffffffffffffff1673ffffffffffffffffffffffffffffffffffffffff166c01000000000000000000000000028152601401807f656e64706f696e74730000000000000000000000000000000000000000000000815250600901915050604051602081830303815290604052805190602001206040518263ffffffff167c01000000000000000000000000000000000000000000000000000000000281526004018082815260200191505060006040518083038186803b158015612dfa57600080fd5b505afa158015612e0e573d6000803e3d6000fd5b505050506040513d6000823e3d601f19601f820116820180604052506020811015612e3857600080fd5b810190808051640100000000811115612e5057600080fd5b82810190506020810184811115612e6657600080fd5b8151856020820283011164010000000082111715612e8357600080fd5b5050929190505050905060008090505b815181101561303b57848282815181101515612eab57fe5b90602001906020020151141561302e57600360009054906101000a900473ffffffffffffffffffffffffffffffffffffffff1673ffffffffffffffffffffffffffffffffffffffff1663a4f63ec83360405160200180807f6f7261636c6573000000000000000000000000000000000000000000000000008152506007018273ffffffffffffffffffffffffffffffffffffffff1673ffffffffffffffffffffffffffffffffffffffff166c01000000000000000000000000028152601401807f656e64706f696e74730000000000000000000000000000000000000000000000815250600901915050604051602081830303815290604052805190602001208360006001026040518463ffffffff167c0100000000000000000000000000000000000000000000000000000000028152600401808481526020018381526020018281526020019350505050600060405180830381600087803b15801561301157600080fd5b505af1158015613025573d6000803e3d6000fd5b5050505061303b565b8080600101915050612e93565b50600360009054906101000a900473ffffffffffffffffffffffffffffffffffffffff1673ffffffffffffffffffffffffffffffffffffffff16638d152d783360405160200180807f6f7261636c6573000000000000000000000000000000000000000000000000008152506007018273ffffffffffffffffffffffffffffffffffffffff1673ffffffffffffffffffffffffffffffffffffffff166c01000000000000000000000000028152601401807f656e64706f696e747300000000000000000000000000000000000000000000008152506009019150506040516020818303038152906040528051906020012060006001026040518363ffffffff167c01000000000000000000000000000000000000000000000000000000000281526004018083815260200182815260200192505050600060405180830381600087803b15801561318a57600080fd5b505af115801561319e573d6000803e3d6000fd5b50505050600360009054906101000a900473ffffffffffffffffffffffffffffffffffffffff1673ffffffffffffffffffffffffffffffffffffffff16634e91db08338660405160200180807f6f7261636c6573000000000000000000000000000000000000000000000000008152506007018373ffffffffffffffffffffffffffffffffffffffff1673ffffffffffffffffffffffffffffffffffffffff166c01000000000000000000000000028152601401828152602001807f62726f6b65720000000000000000000000000000000000000000000000000000815250600601925050506040516020818303038152906040528051906020012060006001026040518363ffffffff167c01000000000000000000000000000000000000000000000000000000000281526004018083815260200182815260200192505050600060405180830381600087803b1580156132f857600080fd5b505af115801561330c573d6000803e3d6000fd5b50505050600360009054906101000a900473ffffffffffffffffffffffffffffffffffffffff1673ffffffffffffffffffffffffffffffffffffffff1663a9fcf76b338660405160200180807f6f7261636c6573000000000000000000000000000000000000000000000000008152506007018373ffffffffffffffffffffffffffffffffffffffff1673ffffffffffffffffffffffffffffffffffffffff166c01000000000000000000000000028152601401807f63757276657300000000000000000000000000000000000000000000000000008152506006018281526020019250505060405160208183030381529060405280519060200120846040518363ffffffff167c01000000000000000000000000000000000000000000000000000000000281526004018083815260200180602001828103825283818151815260200191508051906020019060200280838360005b8381101561347d578082015181840152602081019050613462565b505050509050019350505050600060405180830381600087803b1580156134a357600080fd5b505af11580156134b7573d6000803e3d6000fd5b5050505050505050565b6000600360009054906101000a900473ffffffffffffffffffffffffffffffffffffffff1673ffffffffffffffffffffffffffffffffffffffff1663e16e934060405160200180807f6f7261636c65496e646578000000000000000000000000000000000000000000815250600b01905060405160208183030381529060405280519060200120846040518363ffffffff167c0100000000000000000000000000000000000000000000000000000000028152600401808381526020018281526020019250505060206040518083038186803b1580156135a057600080fd5b505afa1580156135b4573d6000803e3d6000fd5b505050506040513d60208110156135ca57600080fd5b81019080805190602001909291905050509050919050565b6000600360009054906101000a900473ffffffffffffffffffffffffffffffffffffffff1673ffffffffffffffffffffffffffffffffffffffff1663a6ed563e848460405160200180807f6f7261636c6573000000000000000000000000000000000000000000000000008152506007018373ffffffffffffffffffffffffffffffffffffffff1673ffffffffffffffffffffffffffffffffffffffff166c01000000000000000000000000028152601401828152602001807f62726f6b6572000000000000000000000000000000000000000000000000000081525060060192505050604051602081830303815290604052805190602001206040518263ffffffff167c01000000000000000000000000000000000000000000000000000000000281526004018082815260200191505060206040518083038186803b15801561372c57600080fd5b505afa158015613740573d6000803e3d6000fd5b505050506040513d602081101561375657600080fd5b810190808051906020019092919050505060019004905092915050565b6000809054906101000a900473ffffffffffffffffffffffffffffffffffffffff1673ffffffffffffffffffffffffffffffffffffffff163373ffffffffffffffffffffffffffffffffffffffff161415156137ce57600080fd5b6000809054906101000a900473ffffffffffffffffffffffffffffffffffffffff1673ffffffffffffffffffffffffffffffffffffffff16ff5b6060600360009054906101000a900473ffffffffffffffffffffffffffffffffffffffff1673ffffffffffffffffffffffffffffffffffffffff16638db0e83b8360405160200180807f6f7261636c6573000000000000000000000000000000000000000000000000008152506007018273ffffffffffffffffffffffffffffffffffffffff1673ffffffffffffffffffffffffffffffffffffffff166c01000000000000000000000000028152601401807f656e64706f696e74730000000000000000000000000000000000000000000000815250600901915050604051602081830303815290604052805190602001206040518263ffffffff167c01000000000000000000000000000000000000000000000000000000000281526004018082815260200191505060006040518083038186803b15801561394a57600080fd5b505afa15801561395e573d6000803e3d6000fd5b505050506040513d6000823e3d601f19601f82011682018060405250602081101561398857600080fd5b8101908080516401000000008111156139a057600080fd5b828101905060208101848111156139b657600080fd5b81518560208202830111640100000000821117156139d357600080fd5b50509291905050509050919050565b60006139ed33610ec3565b151515613a88576040517f08c379a00000000000000000000000000000000000000000000000000000000081526004018080602001828103825260248152602001807f4572726f723a2050726f766964657220697320616c726561647920696e69746981526020017f617465640000000000000000000000000000000000000000000000000000000081525060400191505060405180910390fd5b613a93338484614aee565b613a9c33614db7565b813373ffffffffffffffffffffffffffffffffffffffff167f96c4fc31a3e383225857c821101daf68248108597da8ddde0ac2b431eb9a16be60405160405180910390a36001905092915050565b60006060829050600081511415613b08576000600102915050613b11565b60208301519150505b919050565b6060600360009054906101000a900473ffffffffffffffffffffffffffffffffffffffff1673ffffffffffffffffffffffffffffffffffffffff16638db0e83b848460405160200180807f6f7261636c6573000000000000000000000000000000000000000000000000008152506007018373ffffffffffffffffffffffffffffffffffffffff1673ffffffffffffffffffffffffffffffffffffffff166c01000000000000000000000000028152601401807f656e64706f696e74506172616d73000000000000000000000000000000000000815250600e0182815260200192505050604051602081830303815290604052805190602001206040518263ffffffff167c01000000000000000000000000000000000000000000000000000000000281526004018082815260200191505060006040518083038186803b158015613c6057600080fd5b505afa158015613c74573d6000803e3d6000fd5b505050506040513d6000823e3d601f19601f820116820180604052506020811015613c9e57600080fd5b810190808051640100000000811115613cb657600080fd5b82810190506020810184811115613ccc57600080fd5b8151856020820283011164010000000082111715613ce957600080fd5b5050929190505050905092915050565b6000809054906101000a900473ffffffffffffffffffffffffffffffffffffffff1673ffffffffffffffffffffffffffffffffffffffff163373ffffffffffffffffffffffffffffffffffffffff16141515613d5457600080fd5b600073ffffffffffffffffffffffffffffffffffffffff168173ffffffffffffffffffffffffffffffffffffffff1614151515613d9057600080fd5b8073ffffffffffffffffffffffffffffffffffffffff166000809054906101000a900473ffffffffffffffffffffffffffffffffffffffff1673ffffffffffffffffffffffffffffffffffffffff167f8be0079c531659141344cd1fd0a4f28419497f9722a3daafe3b4186f6b6457e060405160405180910390a3806000806101000a81548173ffffffffffffffffffffffffffffffffffffffff021916908373ffffffffffffffffffffffffffffffffffffffff16021790555050565b6000600360009054906101000a900473ffffffffffffffffffffffffffffffffffffffff1673ffffffffffffffffffffffffffffffffffffffff1663a6ed563e8360405160200180807f6f7261636c6573000000000000000000000000000000000000000000000000008152506007018273ffffffffffffffffffffffffffffffffffffffff1673ffffffffffffffffffffffffffffffffffffffff166c01000000000000000000000000028152601401807f7469746c65000000000000000000000000000000000000000000000000000000815250600501915050604051602081830303815290604052805190602001206040518263ffffffff167c01000000000000000000000000000000000000000000000000000000000281526004018082815260200191505060206040518083038186803b158015613f9057600080fd5b505afa158015613fa4573d6000803e3d6000fd5b505050506040513d6020811015613fba57600080fd5b81019080805190602001909291905050509050919050565b613fdb33610ec3565b151561404f576040517f08c379a00000000000000000000000000000000000000000000000000000000081526004018080602001828103825260208152602001807f4572726f723a2050726f7669646572206973206e6f7420696e6974696174656481525060200191505060405180910390fd5b600360009054906101000a900473ffffffffffffffffffffffffffffffffffffffff1673ffffffffffffffffffffffffffffffffffffffff16634e91db083360405160200180807f6f7261636c6573000000000000000000000000000000000000000000000000008152506007018273ffffffffffffffffffffffffffffffffffffffff1673ffffffffffffffffffffffffffffffffffffffff166c01000000000000000000000000028152601401807f7469746c6500000000000000000000000000000000000000000000000000000081525060050191505060405160208183030381529060405280519060200120836040518363ffffffff167c01000000000000000000000000000000000000000000000000000000000281526004018083815260200182815260200192505050600060405180830381600087803b15801561419957600080fd5b505af11580156141ad573d6000803e3d6000fd5b5050505050565b6141bd33610ec3565b1515614257576040517f08c379a00000000000000000000000000000000000000000000000000000000081526004018080602001828103825260268152602001807f4572726f723a2050726f7669646572206973206e6f742079657420696e69746981526020017f616c697a6564000000000000000000000000000000000000000000000000000081525060400191505060405180910390fd5b6142613383611cde565b1515156142d6576040517f08c379a000000000000000000000000000000000000000000000000000000000815260040180806020018281038252601b8152602001807f4572726f723a204375727665206973206e6f742079657420736574000000000081525060200191505060405180910390fd5b600360009054906101000a900473ffffffffffffffffffffffffffffffffffffffff1673ffffffffffffffffffffffffffffffffffffffff166356e5cf2e338460405160200180807f6f7261636c6573000000000000000000000000000000000000000000000000008152506007018373ffffffffffffffffffffffffffffffffffffffff1673ffffffffffffffffffffffffffffffffffffffff166c01000000000000000000000000028152601401807f656e64706f696e74506172616d73000000000000000000000000000000000000815250600e018281526020019250505060405160208183030381529060405280519060200120836040518363ffffffff167c01000000000000000000000000000000000000000000000000000000000281526004018083815260200180602001828103825283818151815260200191508051906020019060200280838360005b83811015614443578082015181840152602081019050614428565b505050509050019350505050600060405180830381600087803b15801561446957600080fd5b505af115801561447d573d6000803e3d6000fd5b505050505050565b60006001905060008090505b825181101561465657600083828151811015156144aa57fe5b90602001906020020151905060008113151561452e576040517f08c379a00000000000000000000000000000000000000000000000000000000081526004018080602001828103825260148152602001807f4572726f723a20496e76616c696420437572766500000000000000000000000081525060200191505060405180910390fd5b600060018284010190508451811015156145b0576040517f08c379a00000000000000000000000000000000000000000000000000000000081526004018080602001828103825260148152602001807f4572726f723a20496e76616c696420437572766500000000000000000000000081525060200191505060405180910390fd5b600085828151811015156145c057fe5b9060200190602002015190508481111515614643576040517f08c379a00000000000000000000000000000000000000000000000000000000081526004018080602001828103825260148152602001807f4572726f723a20496e76616c696420437572766500000000000000000000000081525060200191505060405180910390fd5b8094506002830184019350505050614491565b600360009054906101000a900473ffffffffffffffffffffffffffffffffffffffff1673ffffffffffffffffffffffffffffffffffffffff1663a9fcf76b868660405160200180807f6f7261636c6573000000000000000000000000000000000000000000000000008152506007018373ffffffffffffffffffffffffffffffffffffffff1673ffffffffffffffffffffffffffffffffffffffff166c01000000000000000000000000028152601401807f63757276657300000000000000000000000000000000000000000000000000008152506006018281526020019250505060405160208183030381529060405280519060200120856040518363ffffffff167c01000000000000000000000000000000000000000000000000000000000281526004018083815260200180602001828103825283818151815260200191508051906020019060200280838360005b838110156147c35780820151818401526020810190506147a8565b505050509050019350505050600060405180830381600087803b1580156147e957600080fd5b505af11580156147fd573d6000803e3d6000fd5b505050505050505050565b600080600360009054906101000a900473ffffffffffffffffffffffffffffffffffffffff1673ffffffffffffffffffffffffffffffffffffffff16632ecb0d64858560405160200180807f6f7261636c6573000000000000000000000000000000000000000000000000008152506007018373ffffffffffffffffffffffffffffffffffffffff1673ffffffffffffffffffffffffffffffffffffffff166c01000000000000000000000000028152601401807f69735f706172616d5f7365740000000000000000000000000000000000000000815250600c0182815260200192505050604051602081830303815290604052805190602001206040518263ffffffff167c01000000000000000000000000000000000000000000000000000000000281526004018082815260200191505060206040518083038186803b15801561495357600080fd5b505afa158015614967573d6000803e3d6000fd5b505050506040513d602081101561497d57600080fd5b810190808051906020019092919050505090506001811461499f5760006149a2565b60015b91505092915050565b6000600260009054906101000a900473ffffffffffffffffffffffffffffffffffffffff1673ffffffffffffffffffffffffffffffffffffffff1663358177736040518163ffffffff167c01000000000000000000000000000000000000000000000000000000000281526004018080602001828103825260088152602001807f444154414241534500000000000000000000000000000000000000000000000081525060200191505060206040518083038186803b158015614a6d57600080fd5b505afa158015614a81573d6000803e3d6000fd5b505050506040513d6020811015614a9757600080fd5b8101908080519060200190929190505050905080600360006101000a81548173ffffffffffffffffffffffffffffffffffffffff021916908373ffffffffffffffffffffffffffffffffffffffff16021790555050565b600360009054906101000a900473ffffffffffffffffffffffffffffffffffffffff1673ffffffffffffffffffffffffffffffffffffffff166354c552db8460405160200180807f6f7261636c6573000000000000000000000000000000000000000000000000008152506007018273ffffffffffffffffffffffffffffffffffffffff1673ffffffffffffffffffffffffffffffffffffffff166c01000000000000000000000000028152601401807f7075626c69634b6579000000000000000000000000000000000000000000000081525060090191505060405160208183030381529060405280519060200120846040518363ffffffff167c01000000000000000000000000000000000000000000000000000000000281526004018083815260200182815260200192505050600060405180830381600087803b158015614c3857600080fd5b505af1158015614c4c573d6000803e3d6000fd5b50505050600360009054906101000a900473ffffffffffffffffffffffffffffffffffffffff1673ffffffffffffffffffffffffffffffffffffffff16634e91db088460405160200180807f6f7261636c6573000000000000000000000000000000000000000000000000008152506007018273ffffffffffffffffffffffffffffffffffffffff1673ffffffffffffffffffffffffffffffffffffffff166c01000000000000000000000000028152601401807f7469746c6500000000000000000000000000000000000000000000000000000081525060050191505060405160208183030381529060405280519060200120836040518363ffffffff167c01000000000000000000000000000000000000000000000000000000000281526004018083815260200182815260200192505050600060405180830381600087803b158015614d9a57600080fd5b505af1158015614dae573d6000803e3d6000fd5b50505050505050565b600360009054906101000a900473ffffffffffffffffffffffffffffffffffffffff1673ffffffffffffffffffffffffffffffffffffffff1663dd151d1e60405160200180807f6f7261636c65496e646578000000000000000000000000000000000000000000815250600b01905060405160208183030381529060405280519060200120836040518363ffffffff167c0100000000000000000000000000000000000000000000000000000000028152600401808381526020018273ffffffffffffffffffffffffffffffffffffffff1673ffffffffffffffffffffffffffffffffffffffff16815260200192505050600060405180830381600087803b158015614ec257600080fd5b505af1158015614ed6573d6000803e3d6000fd5b505050505056fea165627a7a72305820b9d4541163b08a9d1391c6a226089b4e3f5edb0b9f6298e1d9a10f028bed2d060029",
  "linkReferences": {},
  "deployedLinkReferences": {}
}