{
  "_format": "hh-sol-artifact-1",
  "contractName": "Dispatch",
  "sourceName": "contracts/platform/dispatch/Dispatch.sol",
  "abi": [
    {
      "constant": true,
      "inputs": [
        {
          "name": "id",
          "type": "uint256"
        }
      ],
      "name": "getCancel",
      "outputs": [
        {
          "name": "",
          "type": "uint256"
        }
      ],
      "payable": false,
      "stateMutability": "view",
      "type": "function"
    },
    {
      "constant": false,
      "inputs": [
        {
          "name": "id",
          "type": "uint256"
        },
        {
          "name": "response",
          "type": "bytes32[]"
        }
      ],
      "name": "respondBytes32Array",
      "outputs": [
        {
          "name": "",
          "type": "bool"
        }
      ],
      "payable": false,
      "stateMutability": "nonpayable",
      "type": "function"
    },
    {
      "constant": true,
      "inputs": [
        {
          "name": "account",
          "type": "address"
        }
      ],
      "name": "isContract",
      "outputs": [
        {
          "name": "",
          "type": "bool"
        }
      ],
      "payable": false,
      "stateMutability": "view",
      "type": "function"
    },
    {
      "constant": true,
      "inputs": [
        {
          "name": "id",
          "type": "uint256"
        }
      ],
      "name": "getSubscriber",
      "outputs": [
        {
          "name": "",
          "type": "address"
        }
      ],
      "payable": false,
      "stateMutability": "view",
      "type": "function"
    },
    {
      "constant": false,
      "inputs": [
        {
          "name": "id",
          "type": "uint256"
        },
        {
          "name": "response1",
          "type": "string"
        },
        {
          "name": "response2",
          "type": "string"
        },
        {
          "name": "response3",
          "type": "string"
        },
        {
          "name": "response4",
          "type": "string"
        }
      ],
      "name": "respond4",
      "outputs": [
        {
          "name": "",
          "type": "bool"
        }
      ],
      "payable": false,
      "stateMutability": "nonpayable",
      "type": "function"
    },
    {
      "constant": true,
      "inputs": [
        {
          "name": "id",
          "type": "uint256"
        }
      ],
      "name": "getSubscriberOnchain",
      "outputs": [
        {
          "name": "",
          "type": "bool"
        }
      ],
      "payable": false,
      "stateMutability": "view",
      "type": "function"
    },
    {
      "constant": false,
      "inputs": [
        {
          "name": "id",
          "type": "uint256"
        },
        {
          "name": "response1",
          "type": "string"
        },
        {
          "name": "response2",
          "type": "string"
        },
        {
          "name": "response3",
          "type": "string"
        }
      ],
      "name": "respond3",
      "outputs": [
        {
          "name": "",
          "type": "bool"
        }
      ],
      "payable": false,
      "stateMutability": "nonpayable",
      "type": "function"
    },
    {
      "constant": true,
      "inputs": [],
      "name": "db",
      "outputs": [
        {
          "name": "",
          "type": "address"
        }
      ],
      "payable": false,
      "stateMutability": "view",
      "type": "function"
    },
    {
      "constant": true,
      "inputs": [
        {
          "name": "id",
          "type": "uint256"
        }
      ],
      "name": "getProvider",
      "outputs": [
        {
          "name": "",
          "type": "address"
        }
      ],
      "payable": false,
      "stateMutability": "view",
      "type": "function"
    },
    {
      "constant": true,
      "inputs": [
        {
          "name": "id",
          "type": "uint256"
        }
      ],
      "name": "getStatus",
      "outputs": [
        {
          "name": "",
          "type": "uint256"
        }
      ],
      "payable": false,
      "stateMutability": "view",
      "type": "function"
    },
    {
      "constant": false,
      "inputs": [
        {
          "name": "id",
          "type": "uint256"
        },
        {
          "name": "response",
          "type": "string"
        }
      ],
      "name": "respond1",
      "outputs": [
        {
          "name": "",
          "type": "bool"
        }
      ],
      "payable": false,
      "stateMutability": "nonpayable",
      "type": "function"
    },
    {
      "constant": false,
      "inputs": [],
      "name": "updateDependencies",
      "outputs": [],
      "payable": false,
      "stateMutability": "nonpayable",
      "type": "function"
    },
    {
      "constant": false,
      "inputs": [
        {
          "name": "id",
          "type": "uint256"
        }
      ],
      "name": "cancelQuery",
      "outputs": [],
      "payable": false,
      "stateMutability": "nonpayable",
      "type": "function"
    },
    {
      "constant": false,
      "inputs": [
        {
          "name": "provider",
          "type": "address"
        },
        {
          "name": "userQuery",
          "type": "string"
        },
        {
          "name": "endpoint",
          "type": "bytes32"
        },
        {
          "name": "endpointParams",
          "type": "bytes32[]"
        }
      ],
      "name": "query",
      "outputs": [
        {
          "name": "id",
          "type": "uint256"
        }
      ],
      "payable": false,
      "stateMutability": "nonpayable",
      "type": "function"
    },
    {
      "constant": true,
      "inputs": [],
      "name": "owner",
      "outputs": [
        {
          "name": "",
          "type": "address"
        }
      ],
      "payable": false,
      "stateMutability": "view",
      "type": "function"
    },
    {
      "constant": true,
      "inputs": [],
      "name": "bondage",
      "outputs": [
        {
          "name": "",
          "type": "address"
        }
      ],
      "payable": false,
      "stateMutability": "view",
      "type": "function"
    },
    {
      "constant": true,
      "inputs": [
        {
          "name": "id",
          "type": "uint256"
        }
      ],
      "name": "getEndpoint",
      "outputs": [
        {
          "name": "",
          "type": "bytes32"
        }
      ],
      "payable": false,
      "stateMutability": "view",
      "type": "function"
    },
    {
      "constant": false,
      "inputs": [],
      "name": "selfDestruct",
      "outputs": [],
      "payable": false,
      "stateMutability": "nonpayable",
      "type": "function"
    },
    {
      "constant": true,
      "inputs": [
        {
          "name": "id",
          "type": "uint256"
        }
      ],
      "name": "getUserQuery",
      "outputs": [
        {
          "name": "",
          "type": "string"
        }
      ],
      "payable": false,
      "stateMutability": "view",
      "type": "function"
    },
    {
      "constant": true,
      "inputs": [],
      "name": "bondageAddress",
      "outputs": [
        {
          "name": "",
          "type": "address"
        }
      ],
      "payable": false,
      "stateMutability": "view",
      "type": "function"
    },
    {
      "constant": false,
      "inputs": [
        {
          "name": "id",
          "type": "uint256"
        },
        {
          "name": "response",
          "type": "int256[]"
        }
      ],
      "name": "respondIntArray",
      "outputs": [
        {
          "name": "",
          "type": "bool"
        }
      ],
      "payable": false,
      "stateMutability": "nonpayable",
      "type": "function"
    },
    {
      "constant": false,
      "inputs": [
        {
          "name": "newOwner",
          "type": "address"
        }
      ],
      "name": "transferOwnership",
      "outputs": [],
      "payable": false,
      "stateMutability": "nonpayable",
      "type": "function"
    },
    {
      "constant": false,
      "inputs": [
        {
          "name": "id",
          "type": "uint256"
        },
        {
          "name": "response1",
          "type": "string"
        },
        {
          "name": "response2",
          "type": "string"
        }
      ],
      "name": "respond2",
      "outputs": [
        {
          "name": "",
          "type": "bool"
        }
      ],
      "payable": false,
      "stateMutability": "nonpayable",
      "type": "function"
    },
    {
      "inputs": [
        {
          "name": "c",
          "type": "address"
        }
      ],
      "payable": false,
      "stateMutability": "nonpayable",
      "type": "constructor"
    },
    {
      "anonymous": false,
      "inputs": [
        {
          "indexed": true,
          "name": "id",
          "type": "uint256"
        },
        {
          "indexed": true,
          "name": "provider",
          "type": "address"
        },
        {
          "indexed": true,
          "name": "subscriber",
          "type": "address"
        },
        {
          "indexed": false,
          "name": "query",
          "type": "string"
        },
        {
          "indexed": false,
          "name": "endpoint",
          "type": "bytes32"
        },
        {
          "indexed": false,
          "name": "endpointParams",
          "type": "bytes32[]"
        },
        {
          "indexed": false,
          "name": "onchainSubscriber",
          "type": "bool"
        }
      ],
      "name": "Incoming",
      "type": "event"
    },
    {
      "anonymous": false,
      "inputs": [
        {
          "indexed": true,
          "name": "subscriber",
          "type": "address"
        },
        {
          "indexed": true,
          "name": "provider",
          "type": "address"
        },
        {
          "indexed": true,
          "name": "endpoint",
          "type": "bytes32"
        }
      ],
      "name": "FulfillQuery",
      "type": "event"
    },
    {
      "anonymous": false,
      "inputs": [
        {
          "indexed": true,
          "name": "id",
          "type": "uint256"
        },
        {
          "indexed": true,
          "name": "subscriber",
          "type": "address"
        },
        {
          "indexed": true,
          "name": "provider",
          "type": "address"
        },
        {
          "indexed": false,
          "name": "response",
          "type": "bytes32[]"
        }
      ],
      "name": "OffchainResponse",
      "type": "event"
    },
    {
      "anonymous": false,
      "inputs": [
        {
          "indexed": true,
          "name": "id",
          "type": "uint256"
        },
        {
          "indexed": true,
          "name": "subscriber",
          "type": "address"
        },
        {
          "indexed": true,
          "name": "provider",
          "type": "address"
        },
        {
          "indexed": false,
          "name": "response",
          "type": "int256[]"
        }
      ],
      "name": "OffchainResponseInt",
      "type": "event"
    },
    {
      "anonymous": false,
      "inputs": [
        {
          "indexed": true,
          "name": "id",
          "type": "uint256"
        },
        {
          "indexed": true,
          "name": "subscriber",
          "type": "address"
        },
        {
          "indexed": true,
          "name": "provider",
          "type": "address"
        },
        {
          "indexed": false,
          "name": "response1",
          "type": "string"
        }
      ],
      "name": "OffchainResult1",
      "type": "event"
    },
    {
      "anonymous": false,
      "inputs": [
        {
          "indexed": true,
          "name": "id",
          "type": "uint256"
        },
        {
          "indexed": true,
          "name": "subscriber",
          "type": "address"
        },
        {
          "indexed": true,
          "name": "provider",
          "type": "address"
        },
        {
          "indexed": false,
          "name": "response1",
          "type": "string"
        },
        {
          "indexed": false,
          "name": "response2",
          "type": "string"
        }
      ],
      "name": "OffchainResult2",
      "type": "event"
    },
    {
      "anonymous": false,
      "inputs": [
        {
          "indexed": true,
          "name": "id",
          "type": "uint256"
        },
        {
          "indexed": true,
          "name": "subscriber",
          "type": "address"
        },
        {
          "indexed": true,
          "name": "provider",
          "type": "address"
        },
        {
          "indexed": false,
          "name": "response1",
          "type": "string"
        },
        {
          "indexed": false,
          "name": "response2",
          "type": "string"
        },
        {
          "indexed": false,
          "name": "response3",
          "type": "string"
        }
      ],
      "name": "OffchainResult3",
      "type": "event"
    },
    {
      "anonymous": false,
      "inputs": [
        {
          "indexed": true,
          "name": "id",
          "type": "uint256"
        },
        {
          "indexed": true,
          "name": "subscriber",
          "type": "address"
        },
        {
          "indexed": true,
          "name": "provider",
          "type": "address"
        },
        {
          "indexed": false,
          "name": "response1",
          "type": "string"
        },
        {
          "indexed": false,
          "name": "response2",
          "type": "string"
        },
        {
          "indexed": false,
          "name": "response3",
          "type": "string"
        },
        {
          "indexed": false,
          "name": "response4",
          "type": "string"
        }
      ],
      "name": "OffchainResult4",
      "type": "event"
    },
    {
      "anonymous": false,
      "inputs": [
        {
          "indexed": true,
          "name": "id",
          "type": "uint256"
        },
        {
          "indexed": true,
          "name": "subscriber",
          "type": "address"
        },
        {
          "indexed": true,
          "name": "provider",
          "type": "address"
        }
      ],
      "name": "CanceledRequest",
      "type": "event"
    },
    {
      "anonymous": false,
      "inputs": [
        {
          "indexed": true,
          "name": "id",
          "type": "uint256"
        },
        {
          "indexed": true,
          "name": "subscriber",
          "type": "address"
        },
        {
          "indexed": true,
          "name": "provider",
          "type": "address"
        }
      ],
      "name": "RevertCancelation",
      "type": "event"
    },
    {
      "anonymous": false,
      "inputs": [
        {
          "indexed": true,
          "name": "previousOwner",
          "type": "address"
        },
        {
          "indexed": true,
          "name": "newOwner",
          "type": "address"
        }
      ],
      "name": "OwnershipTransferred",
      "type": "event"
    }
  ],
  "bytecode": "0x608060405234801561001057600080fd5b5060405160208062004b5a8339810180604052602081101561003157600080fd5b810190808051906020019092919050505080336000806101000a81548173ffffffffffffffffffffffffffffffffffffffff021916908373ffffffffffffffffffffffffffffffffffffffff16021790555080600160006101000a81548173ffffffffffffffffffffffffffffffffffffffff021916908373ffffffffffffffffffffffffffffffffffffffff16021790555080600260006101000a81548173ffffffffffffffffffffffffffffffffffffffff021916908373ffffffffffffffffffffffffffffffffffffffff1602179055505050614a4380620001176000396000f3fe60806040526004361061012d576000357c010000000000000000000000000000000000000000000000000000000090048063027521ce146101325780630cbe69a114610181578063162790551461022957806325df1e77146102925780633485d34c1461030d57806337a8c560146104b45780633b90dfa8146105075780634d655aff146106595780635c42d079146106b05780635c622a0e1461072b5780636843581c1461077a5780636e5ecdff146108225780637237dc0b146108395780637de7cc66146108745780638da5cb5b1461098d5780638ed20021146109e4578063937bbc4a14610a3b5780639cb8a26a14610a8a578063dc7317c914610aa1578063e00dbb4114610b55578063ef05ab0b14610bac578063f2fde38b14610c54578063fedea28814610ca5575b600080fd5b34801561013e57600080fd5b5061016b6004803603602081101561015557600080fd5b8101908080359060200190929190505050610da2565b6040518082815260200191505060405180910390f35b34801561018d57600080fd5b5061020f600480360360408110156101a457600080fd5b8101908080359060200190929190803590602001906401000000008111156101cb57600080fd5b8201836020820111156101dd57600080fd5b803590602001918460208302840111640100000000831117156101ff57600080fd5b9091929391929390505050610eeb565b604051808215151515815260200191505060405180910390f35b34801561023557600080fd5b506102786004803603602081101561024c57600080fd5b81019080803573ffffffffffffffffffffffffffffffffffffffff1690602001909291905050506110c2565b604051808215151515815260200191505060405180910390f35b34801561029e57600080fd5b506102cb600480360360208110156102b557600080fd5b81019080803590602001909291905050506110d5565b604051808273ffffffffffffffffffffffffffffffffffffffff1673ffffffffffffffffffffffffffffffffffffffff16815260200191505060405180910390f35b34801561031957600080fd5b5061049a600480360360a081101561033057600080fd5b81019080803590602001909291908035906020019064010000000081111561035757600080fd5b82018360208201111561036957600080fd5b8035906020019184600183028401116401000000008311171561038b57600080fd5b9091929391929390803590602001906401000000008111156103ac57600080fd5b8201836020820111156103be57600080fd5b803590602001918460018302840111640100000000831117156103e057600080fd5b90919293919293908035906020019064010000000081111561040157600080fd5b82018360208201111561041357600080fd5b8035906020019184600183028401116401000000008311171561043557600080fd5b90919293919293908035906020019064010000000081111561045657600080fd5b82018360208201111561046857600080fd5b8035906020019184600183028401116401000000008311171561048a57600080fd5b909192939192939050505061121e565b604051808215151515815260200191505060405180910390f35b3480156104c057600080fd5b506104ed600480360360208110156104d757600080fd5b810190808035906020019092919050505061152d565b604051808215151515815260200191505060405180910390f35b34801561051357600080fd5b5061063f6004803603608081101561052a57600080fd5b81019080803590602001909291908035906020019064010000000081111561055157600080fd5b82018360208201111561056357600080fd5b8035906020019184600183028401116401000000008311171561058557600080fd5b9091929391929390803590602001906401000000008111156105a657600080fd5b8201836020820111156105b857600080fd5b803590602001918460018302840111640100000000831117156105da57600080fd5b9091929391929390803590602001906401000000008111156105fb57600080fd5b82018360208201111561060d57600080fd5b8035906020019184600183028401116401000000008311171561062f57600080fd5b909192939192939050505061168c565b604051808215151515815260200191505060405180910390f35b34801561066557600080fd5b5061066e611931565b604051808273ffffffffffffffffffffffffffffffffffffffff1673ffffffffffffffffffffffffffffffffffffffff16815260200191505060405180910390f35b3480156106bc57600080fd5b506106e9600480360360208110156106d357600080fd5b8101908080359060200190929190505050611957565b604051808273ffffffffffffffffffffffffffffffffffffffff1673ffffffffffffffffffffffffffffffffffffffff16815260200191505060405180910390f35b34801561073757600080fd5b506107646004803603602081101561074e57600080fd5b8101908080359060200190929190505050611aa0565b6040518082815260200191505060405180910390f35b34801561078657600080fd5b506108086004803603604081101561079d57600080fd5b8101908080359060200190929190803590602001906401000000008111156107c457600080fd5b8201836020820111156107d657600080fd5b803590602001918460018302840111640100000000831117156107f857600080fd5b9091929391929390505050611be9565b604051808215151515815260200191505060405180910390f35b34801561082e57600080fd5b50610837611dba565b005b34801561084557600080fd5b506108726004803603602081101561085c57600080fd5b8101908080359060200190929190505050611e89565b005b34801561088057600080fd5b506109776004803603608081101561089757600080fd5b81019080803573ffffffffffffffffffffffffffffffffffffffff169060200190929190803590602001906401000000008111156108d457600080fd5b8201836020820111156108e657600080fd5b8035906020019184600183028401116401000000008311171561090857600080fd5b9091929391929390803590602001909291908035906020019064010000000081111561093357600080fd5b82018360208201111561094557600080fd5b8035906020019184602083028401116401000000008311171561096757600080fd5b90919293919293905050506121ae565b6040518082815260200191505060405180910390f35b34801561099957600080fd5b506109a2612881565b604051808273ffffffffffffffffffffffffffffffffffffffff1673ffffffffffffffffffffffffffffffffffffffff16815260200191505060405180910390f35b3480156109f057600080fd5b506109f96128a6565b604051808273ffffffffffffffffffffffffffffffffffffffff1673ffffffffffffffffffffffffffffffffffffffff16815260200191505060405180910390f35b348015610a4757600080fd5b50610a7460048036036020811015610a5e57600080fd5b81019080803590602001909291905050506128cc565b6040518082815260200191505060405180910390f35b348015610a9657600080fd5b50610a9f612a15565b005b348015610aad57600080fd5b50610ada60048036036020811015610ac457600080fd5b8101908080359060200190929190505050612aaa565b6040518080602001828103825283818151815260200191508051906020019080838360005b83811015610b1a578082015181840152602081019050610aff565b50505050905090810190601f168015610b475780820380516001836020036101000a031916815260200191505b509250505060405180910390f35b348015610b6157600080fd5b50610b6a612c49565b604051808273ffffffffffffffffffffffffffffffffffffffff1673ffffffffffffffffffffffffffffffffffffffff16815260200191505060405180910390f35b348015610bb857600080fd5b50610c3a60048036036040811015610bcf57600080fd5b810190808035906020019092919080359060200190640100000000811115610bf657600080fd5b820183602082011115610c0857600080fd5b80359060200191846020830284011164010000000083111715610c2a57600080fd5b9091929391929390505050612c6f565b604051808215151515815260200191505060405180910390f35b348015610c6057600080fd5b50610ca360048036036020811015610c7757600080fd5b81019080803573ffffffffffffffffffffffffffffffffffffffff169060200190929190505050612e46565b005b348015610cb157600080fd5b50610d8860048036036060811015610cc857600080fd5b810190808035906020019092919080359060200190640100000000811115610cef57600080fd5b820183602082011115610d0157600080fd5b80359060200191846001830284011164010000000083111715610d2357600080fd5b909192939192939080359060200190640100000000811115610d4457600080fd5b820183602082011115610d5657600080fd5b80359060200191846001830284011164010000000083111715610d7857600080fd5b9091929391929390505050612f9b565b604051808215151515815260200191505060405180910390f35b6000600560009054906101000a900473ffffffffffffffffffffffffffffffffffffffff1673ffffffffffffffffffffffffffffffffffffffff16632ecb0d648360405160200180807f7175657269657300000000000000000000000000000000000000000000000000815250600701828152602001807f63616e63656c426c6f636b000000000000000000000000000000000000000000815250600b01915050604051602081830303815290604052805190602001206040518263ffffffff167c01000000000000000000000000000000000000000000000000000000000281526004018082815260200191505060206040518083038186803b158015610ea957600080fd5b505afa158015610ebd573d6000803e3d6000fd5b505050506040513d6020811015610ed357600080fd5b81019080805190602001909291905050509050919050565b60003373ffffffffffffffffffffffffffffffffffffffff16610f0d85611957565b73ffffffffffffffffffffffffffffffffffffffff16141580610f365750610f34846131d6565b155b15610f4057600080fd5b610f498461152d565b1561101957610f57846110d5565b73ffffffffffffffffffffffffffffffffffffffff166363b41fe98585856040518463ffffffff167c010000000000000000000000000000000000000000000000000000000002815260040180848152602001806020018281038252848482818152602001925060200280828437600081840152601f19601f820116905080830192505050945050505050600060405180830381600087803b158015610ffc57600080fd5b505af1158015611010573d6000803e3d6000fd5b505050506110b7565b3373ffffffffffffffffffffffffffffffffffffffff16611039856110d5565b73ffffffffffffffffffffffffffffffffffffffff16857f92d44f3550f6aeaab26241971266a417e4385691402c27c5a1bf69b2c19210c6868660405180806020018281038252848482818152602001925060200280828437600081840152601f19601f820116905080830192505050935050505060405180910390a45b600190509392505050565b600080823b905060008111915050919050565b6000600560009054906101000a900473ffffffffffffffffffffffffffffffffffffffff1673ffffffffffffffffffffffffffffffffffffffff16632ecb0d648360405160200180807f7175657269657300000000000000000000000000000000000000000000000000815250600701828152602001807f7375627363726962657200000000000000000000000000000000000000000000815250600a01915050604051602081830303815290604052805190602001206040518263ffffffff167c01000000000000000000000000000000000000000000000000000000000281526004018082815260200191505060206040518083038186803b1580156111dc57600080fd5b505afa1580156111f0573d6000803e3d6000fd5b505050506040513d602081101561120657600080fd5b81019080805190602001909291905050509050919050565b60003373ffffffffffffffffffffffffffffffffffffffff166112408b611957565b73ffffffffffffffffffffffffffffffffffffffff1614158061126957506112678a6131d6565b155b1561127357600080fd5b61127c8a61152d565b156113e55761128a8a6110d5565b73ffffffffffffffffffffffffffffffffffffffff1663a267cf078b8b8b8b8b8b8b8b8b6040518a63ffffffff167c0100000000000000000000000000000000000000000000000000000000028152600401808a81526020018060200180602001806020018060200185810385528d8d82818152602001925080828437600081840152601f19601f82011690508083019250505085810384528b8b82818152602001925080828437600081840152601f19601f8201169050808301925050508581038352898982818152602001925080828437600081840152601f19601f8201169050808301925050508581038252878782818152602001925080828437600081840152601f19601f8201169050808301925050509d5050505050505050505050505050600060405180830381600087803b1580156113c857600080fd5b505af11580156113dc573d6000803e3d6000fd5b5050505061151c565b3373ffffffffffffffffffffffffffffffffffffffff166114058b6110d5565b73ffffffffffffffffffffffffffffffffffffffff168b7f5e141f0f2db9b2fa0d44e60384103676292be03cac75671374ea23e719dcd64b8c8c8c8c8c8c8c8c604051808060200180602001806020018060200185810385528d8d82818152602001925080828437600081840152601f19601f82011690508083019250505085810384528b8b82818152602001925080828437600081840152601f19601f8201169050808301925050508581038352898982818152602001925080828437600081840152601f19601f8201169050808301925050508581038252878782818152602001925080828437600081840152601f19601f8201169050808301925050509c5050505050505050505050505060405180910390a45b600190509998505050505050505050565b600080600560009054906101000a900473ffffffffffffffffffffffffffffffffffffffff1673ffffffffffffffffffffffffffffffffffffffff16632ecb0d648460405160200180807f7175657269657300000000000000000000000000000000000000000000000000815250600701828152602001807f6f6e636861696e53756273637269626572000000000000000000000000000000815250601101915050604051602081830303815290604052805190602001206040518263ffffffff167c01000000000000000000000000000000000000000000000000000000000281526004018082815260200191505060206040518083038186803b15801561163557600080fd5b505afa158015611649573d6000803e3d6000fd5b505050506040513d602081101561165f57600080fd5b8101908080519060200190929190505050905060018114611681576000611684565b60015b915050919050565b60003373ffffffffffffffffffffffffffffffffffffffff166116ae89611957565b73ffffffffffffffffffffffffffffffffffffffff161415806116d757506116d5886131d6565b155b156116e157600080fd5b6116ea8861152d565b1561181f576116f8886110d5565b73ffffffffffffffffffffffffffffffffffffffff1663d936a327898989898989896040518863ffffffff167c01000000000000000000000000000000000000000000000000000000000281526004018088815260200180602001806020018060200184810384528a8a82818152602001925080828437600081840152601f19601f8201169050808301925050508481038352888882818152602001925080828437600081840152601f19601f8201169050808301925050508481038252868682818152602001925080828437600081840152601f19601f8201169050808301925050509a5050505050505050505050600060405180830381600087803b15801561180257600080fd5b505af1158015611816573d6000803e3d6000fd5b50505050611922565b3373ffffffffffffffffffffffffffffffffffffffff1661183f896110d5565b73ffffffffffffffffffffffffffffffffffffffff16897f5d15dbf2e2e3132b5a4fa750a08fbdc88bde1149224a6b1de740e50804707ef28a8a8a8a8a8a6040518080602001806020018060200184810384528a8a82818152602001925080828437600081840152601f19601f8201169050808301925050508481038352888882818152602001925080828437600081840152601f19601f8201169050808301925050508481038252868682818152602001925080828437600081840152601f19601f820116905080830192505050995050505050505050505060405180910390a45b60019050979650505050505050565b600560009054906101000a900473ffffffffffffffffffffffffffffffffffffffff1681565b6000600560009054906101000a900473ffffffffffffffffffffffffffffffffffffffff1673ffffffffffffffffffffffffffffffffffffffff16632ecb0d648360405160200180807f7175657269657300000000000000000000000000000000000000000000000000815250600701828152602001807f70726f7669646572000000000000000000000000000000000000000000000000815250600801915050604051602081830303815290604052805190602001206040518263ffffffff167c01000000000000000000000000000000000000000000000000000000000281526004018082815260200191505060206040518083038186803b158015611a5e57600080fd5b505afa158015611a72573d6000803e3d6000fd5b505050506040513d6020811015611a8857600080fd5b81019080805190602001909291905050509050919050565b6000600560009054906101000a900473ffffffffffffffffffffffffffffffffffffffff1673ffffffffffffffffffffffffffffffffffffffff16632ecb0d648360405160200180807f7175657269657300000000000000000000000000000000000000000000000000815250600701828152602001807f7374617475730000000000000000000000000000000000000000000000000000815250600601915050604051602081830303815290604052805190602001206040518263ffffffff167c01000000000000000000000000000000000000000000000000000000000281526004018082815260200191505060206040518083038186803b158015611ba757600080fd5b505afa158015611bbb573d6000803e3d6000fd5b505050506040513d6020811015611bd157600080fd5b81019080805190602001909291905050509050919050565b60003373ffffffffffffffffffffffffffffffffffffffff16611c0b85611957565b73ffffffffffffffffffffffffffffffffffffffff16141580611c345750611c32846131d6565b155b15611c3e57600080fd5b611c478461152d565b15611d1457611c55846110d5565b73ffffffffffffffffffffffffffffffffffffffff1663b69a375d8585856040518463ffffffff167c010000000000000000000000000000000000000000000000000000000002815260040180848152602001806020018281038252848482818152602001925080828437600081840152601f19601f820116905080830192505050945050505050600060405180830381600087803b158015611cf757600080fd5b505af1158015611d0b573d6000803e3d6000fd5b50505050611daf565b3373ffffffffffffffffffffffffffffffffffffffff16611d34856110d5565b73ffffffffffffffffffffffffffffffffffffffff16857f61ca5cd516a9a4012e4c147542d38223206ca531953abcb3272f579768d9dfb0868660405180806020018281038252848482818152602001925080828437600081840152601f19601f820116905080830192505050935050505060405180910390a45b600190509392505050565b600160009054906101000a900473ffffffffffffffffffffffffffffffffffffffff1673ffffffffffffffffffffffffffffffffffffffff163373ffffffffffffffffffffffffffffffffffffffff16141515611e7f576040517f08c379a00000000000000000000000000000000000000000000000000000000081526004018080602001828103825260208152602001807f4572726f723a20436f6f7264696e61746f72204f6e6c792046756e6374696f6e81525060200191505060405180910390fd5b611e8761369c565b565b6000611e94826110d5565b90506000611ea183611957565b90506000611eae846128cc565b90503373ffffffffffffffffffffffffffffffffffffffff168373ffffffffffffffffffffffffffffffffffffffff16141515611f53576040517f08c379a00000000000000000000000000000000000000000000000000000000081526004018080602001828103825260178152602001807f4572726f723a2057726f6e67207375627363726962657200000000000000000081525060200191505060405180910390fd5b60006002811115611f6057fe5b611f6985611aa0565b6002811115611f7457fe5b6002811115611f7f57fe5b141515611ff4576040517f08c379a000000000000000000000000000000000000000000000000000000000815260040180806020018281038252601b8152602001807f4572726f723a205175657279206973206e6f742070656e64696e67000000000081525060200191505060405180910390fd5b611fff84600161397d565b600360009054906101000a900473ffffffffffffffffffffffffffffffffffffffff1673ffffffffffffffffffffffffffffffffffffffff1663f6dfac2584848460016040518563ffffffff167c0100000000000000000000000000000000000000000000000000000000028152600401808573ffffffffffffffffffffffffffffffffffffffff1673ffffffffffffffffffffffffffffffffffffffff1681526020018473ffffffffffffffffffffffffffffffffffffffff1673ffffffffffffffffffffffffffffffffffffffff168152602001838152602001828152602001945050505050602060405180830381600087803b15801561210157600080fd5b505af1158015612115573d6000803e3d6000fd5b505050506040513d602081101561212b57600080fd5b81019080805190602001909291905050505061214684611957565b73ffffffffffffffffffffffffffffffffffffffff16612165856110d5565b73ffffffffffffffffffffffffffffffffffffffff16857f4030457f4368d74748ca5f9c90692bd6c8a018884ddca38fcbce9e02179e777e60405160405180910390a450505050565b600080600360009054906101000a900473ffffffffffffffffffffffffffffffffffffffff1673ffffffffffffffffffffffffffffffffffffffff1663bbee3694338a886040518463ffffffff167c0100000000000000000000000000000000000000000000000000000000028152600401808473ffffffffffffffffffffffffffffffffffffffff1673ffffffffffffffffffffffffffffffffffffffff1681526020018373ffffffffffffffffffffffffffffffffffffffff1673ffffffffffffffffffffffffffffffffffffffff168152602001828152602001935050505060206040518083038186803b1580156122a857600080fd5b505afa1580156122bc573d6000803e3d6000fd5b505050506040513d60208110156122d257600080fd5b8101908080519060200190929190505050905060006122f0896110c2565b905060006122fd336110c2565b905061230833613e41565b612347826040805190810160405280600881526020017f70726f7669646572000000000000000000000000000000000000000000000000815250613f06565b6001831015156127e057600360009054906101000a900473ffffffffffffffffffffffffffffffffffffffff1673ffffffffffffffffffffffffffffffffffffffff166316614c98338c8a60016040518563ffffffff167c0100000000000000000000000000000000000000000000000000000000028152600401808573ffffffffffffffffffffffffffffffffffffffff1673ffffffffffffffffffffffffffffffffffffffff1681526020018473ffffffffffffffffffffffffffffffffffffffff1673ffffffffffffffffffffffffffffffffffffffff168152602001838152602001828152602001945050505050602060405180830381600087803b15801561245357600080fd5b505af1158015612467573d6000803e3d6000fd5b505050506040513d602081101561247d57600080fd5b81019080805190602001909291905050505043428a8a338e60405160200180878152602001868152602001858580828437808301925050508373ffffffffffffffffffffffffffffffffffffffff1673ffffffffffffffffffffffffffffffffffffffff166c010000000000000000000000000281526014018273ffffffffffffffffffffffffffffffffffffffff1673ffffffffffffffffffffffffffffffffffffffff166c0100000000000000000000000002815260140196505050505050506040516020818303038152906040528051906020012060019004935061259a846040805190810160405280600881526020017f7175657279206964000000000000000000000000000000000000000000000000815250614011565b6125ec848b338a8d8d8080601f016020809104026020016040519081016040528093929190818152602001838380828437600081840152601f19601f8201169050808301925050505050505086614118565b81156126fd578973ffffffffffffffffffffffffffffffffffffffff1663de261583858b8b8b8b8b886040518863ffffffff167c0100000000000000000000000000000000000000000000000000000000028152600401808881526020018060200186815260200180602001841515151581526020018381038352898982818152602001925080828437600081840152601f19601f8201169050808301925050508381038252868682818152602001925060200280828437600081840152601f19601f8201169050808301925050509950505050505050505050600060405180830381600087803b1580156126e057600080fd5b505af11580156126f4573d6000803e3d6000fd5b505050506127db565b3373ffffffffffffffffffffffffffffffffffffffff168a73ffffffffffffffffffffffffffffffffffffffff16857f69741cc3ec0270f258feb6b53b42ef1e7d2251a3c8eea4f6ba1f72bd4b7beba78c8c8c8c8c89604051808060200186815260200180602001841515151581526020018381038352898982818152602001925080828437600081840152601f19601f8201169050808301925050508381038252868682818152602001925060200280828437600081840152601f19601f8201169050808301925050509850505050505050505060405180910390a45b612874565b6040517f08c379a00000000000000000000000000000000000000000000000000000000081526004018080602001828103825260228152602001807f5375627363726962657220646f6573206e6f74206861766520616e7920646f7481526020017f732e00000000000000000000000000000000000000000000000000000000000081525060400191505060405180910390fd5b5050509695505050505050565b6000809054906101000a900473ffffffffffffffffffffffffffffffffffffffff1681565b600360009054906101000a900473ffffffffffffffffffffffffffffffffffffffff1681565b6000600560009054906101000a900473ffffffffffffffffffffffffffffffffffffffff1673ffffffffffffffffffffffffffffffffffffffff1663a6ed563e8360405160200180807f7175657269657300000000000000000000000000000000000000000000000000815250600701828152602001807f656e64706f696e74000000000000000000000000000000000000000000000000815250600801915050604051602081830303815290604052805190602001206040518263ffffffff167c01000000000000000000000000000000000000000000000000000000000281526004018082815260200191505060206040518083038186803b1580156129d357600080fd5b505afa1580156129e7573d6000803e3d6000fd5b505050506040513d60208110156129fd57600080fd5b81019080805190602001909291905050509050919050565b6000809054906101000a900473ffffffffffffffffffffffffffffffffffffffff1673ffffffffffffffffffffffffffffffffffffffff163373ffffffffffffffffffffffffffffffffffffffff16141515612a7057600080fd5b6000809054906101000a900473ffffffffffffffffffffffffffffffffffffffff1673ffffffffffffffffffffffffffffffffffffffff16ff5b6060600560009054906101000a900473ffffffffffffffffffffffffffffffffffffffff1673ffffffffffffffffffffffffffffffffffffffff1663986e791a8360405160200180807f7175657269657300000000000000000000000000000000000000000000000000815250600701828152602001807f7573657251756572790000000000000000000000000000000000000000000000815250600901915050604051602081830303815290604052805190602001206040518263ffffffff167c01000000000000000000000000000000000000000000000000000000000281526004018082815260200191505060006040518083038186803b158015612bb157600080fd5b505afa158015612bc5573d6000803e3d6000fd5b505050506040513d6000823e3d601f19601f820116820180604052506020811015612bef57600080fd5b810190808051640100000000811115612c0757600080fd5b82810190506020810184811115612c1d57600080fd5b8151856001820283011164010000000082111715612c3a57600080fd5b50509291905050509050919050565b600460009054906101000a900473ffffffffffffffffffffffffffffffffffffffff1681565b60003373ffffffffffffffffffffffffffffffffffffffff16612c9185611957565b73ffffffffffffffffffffffffffffffffffffffff16141580612cba5750612cb8846131d6565b155b15612cc457600080fd5b612ccd8461152d565b15612d9d57612cdb846110d5565b73ffffffffffffffffffffffffffffffffffffffff166399ff48af8585856040518463ffffffff167c010000000000000000000000000000000000000000000000000000000002815260040180848152602001806020018281038252848482818152602001925060200280828437600081840152601f19601f820116905080830192505050945050505050600060405180830381600087803b158015612d8057600080fd5b505af1158015612d94573d6000803e3d6000fd5b50505050612e3b565b3373ffffffffffffffffffffffffffffffffffffffff16612dbd856110d5565b73ffffffffffffffffffffffffffffffffffffffff16857f9f77e7a9a5b13a5eb3acd7d32b8bffc55d7eb27f4ac09a5b804feaf2bab4c74d868660405180806020018281038252848482818152602001925060200280828437600081840152601f19601f820116905080830192505050935050505060405180910390a45b600190509392505050565b6000809054906101000a900473ffffffffffffffffffffffffffffffffffffffff1673ffffffffffffffffffffffffffffffffffffffff163373ffffffffffffffffffffffffffffffffffffffff16141515612ea157600080fd5b600073ffffffffffffffffffffffffffffffffffffffff168173ffffffffffffffffffffffffffffffffffffffff1614151515612edd57600080fd5b8073ffffffffffffffffffffffffffffffffffffffff166000809054906101000a900473ffffffffffffffffffffffffffffffffffffffff1673ffffffffffffffffffffffffffffffffffffffff167f8be0079c531659141344cd1fd0a4f28419497f9722a3daafe3b4186f6b6457e060405160405180910390a3806000806101000a81548173ffffffffffffffffffffffffffffffffffffffff021916908373ffffffffffffffffffffffffffffffffffffffff16021790555050565b60003373ffffffffffffffffffffffffffffffffffffffff16612fbd87611957565b73ffffffffffffffffffffffffffffffffffffffff16141580612fe65750612fe4866131d6565b155b15612ff057600080fd5b612ff98661152d565b156130fa57613007866110d5565b73ffffffffffffffffffffffffffffffffffffffff1663f5795cd587878787876040518663ffffffff167c01000000000000000000000000000000000000000000000000000000000281526004018086815260200180602001806020018381038352878782818152602001925080828437600081840152601f19601f8201169050808301925050508381038252858582818152602001925080828437600081840152601f19601f820116905080830192505050975050505050505050600060405180830381600087803b1580156130dd57600080fd5b505af11580156130f1573d6000803e3d6000fd5b505050506131c9565b3373ffffffffffffffffffffffffffffffffffffffff1661311a876110d5565b73ffffffffffffffffffffffffffffffffffffffff16877ff34afe5c6e139b15c1ff3b929a198532242d2d8727db2099925e4e2d8a8fc681888888886040518080602001806020018381038352878782818152602001925080828437600081840152601f19601f8201169050808301925050508381038252858582818152602001925080828437600081840152601f19601f820116905080830192505050965050505050505060405180910390a45b6001905095945050505050565b6000806131e283611aa0565b60028111156131ed57fe5b9050600160028111156131fc57fe5b81600281111561320857fe5b1415151561327e576040517f08c379a000000000000000000000000000000000000000000000000000000000815260040180806020018281038252601f8152602001807f4572726f723a2053746174757320616c72656164792066756c66696c6c65640081525060200191505060405180910390fd5b6000613289846110d5565b9050600061329685611957565b905060006132a3866128cc565b90506002808111156132b157fe5b8460028111156132bd57fe5b14156134ed5760006132ce87610da2565b90508043141515613347576040517f08c379a00000000000000000000000000000000000000000000000000000000081526004018080602001828103825260158152602001807f4572726f723a2043616e63656c2069676e6f726564000000000000000000000081525060200191505060405180910390fd5b61335287600061397d565b600360009054906101000a900473ffffffffffffffffffffffffffffffffffffffff1673ffffffffffffffffffffffffffffffffffffffff166316614c9885858560016040518563ffffffff167c0100000000000000000000000000000000000000000000000000000000028152600401808573ffffffffffffffffffffffffffffffffffffffff1673ffffffffffffffffffffffffffffffffffffffff1681526020018473ffffffffffffffffffffffffffffffffffffffff1673ffffffffffffffffffffffffffffffffffffffff168152602001838152602001828152602001945050505050602060405180830381600087803b15801561345457600080fd5b505af1158015613468573d6000803e3d6000fd5b505050506040513d602081101561347e57600080fd5b8101908080519060200190929190505050508273ffffffffffffffffffffffffffffffffffffffff168473ffffffffffffffffffffffffffffffffffffffff16887f01aa7d984ab9ef683cf842c6260f8c3d4e2c2c4a32bfa5120bf0f6bcd51225f060405160405180910390a4505b6134f6866148b8565b600360009054906101000a900473ffffffffffffffffffffffffffffffffffffffff1673ffffffffffffffffffffffffffffffffffffffff16633b058aa784848460016040518563ffffffff167c0100000000000000000000000000000000000000000000000000000000028152600401808573ffffffffffffffffffffffffffffffffffffffff1673ffffffffffffffffffffffffffffffffffffffff1681526020018473ffffffffffffffffffffffffffffffffffffffff1673ffffffffffffffffffffffffffffffffffffffff168152602001838152602001828152602001945050505050602060405180830381600087803b1580156135f857600080fd5b505af115801561360c573d6000803e3d6000fd5b505050506040513d602081101561362257600080fd5b810190808051906020019092919050505050808273ffffffffffffffffffffffffffffffffffffffff168473ffffffffffffffffffffffffffffffffffffffff167fd2acd679e4b12e04dac69f514df2934d7bdb622acd5b5ebaea14f3dd70c3d58a60405160405180910390a46001945050505050919050565b6000600260009054906101000a900473ffffffffffffffffffffffffffffffffffffffff1673ffffffffffffffffffffffffffffffffffffffff1663358177736040518163ffffffff167c01000000000000000000000000000000000000000000000000000000000281526004018080602001828103825260088152602001807f444154414241534500000000000000000000000000000000000000000000000081525060200191505060206040518083038186803b15801561375e57600080fd5b505afa158015613772573d6000803e3d6000fd5b505050506040513d602081101561378857600080fd5b8101908080519060200190929190505050905080600560006101000a81548173ffffffffffffffffffffffffffffffffffffffff021916908373ffffffffffffffffffffffffffffffffffffffff160217905550600260009054906101000a900473ffffffffffffffffffffffffffffffffffffffff1673ffffffffffffffffffffffffffffffffffffffff1663358177736040518163ffffffff167c01000000000000000000000000000000000000000000000000000000000281526004018080602001828103825260078152602001807f424f4e444147450000000000000000000000000000000000000000000000000081525060200191505060206040518083038186803b15801561389c57600080fd5b505afa1580156138b0573d6000803e3d6000fd5b505050506040513d60208110156138c657600080fd5b8101908080519060200190929190505050600460006101000a81548173ffffffffffffffffffffffffffffffffffffffff021916908373ffffffffffffffffffffffffffffffffffffffff160217905550600460009054906101000a900473ffffffffffffffffffffffffffffffffffffffff16600360006101000a81548173ffffffffffffffffffffffffffffffffffffffff021916908373ffffffffffffffffffffffffffffffffffffffff16021790555050565b8015613be157600560009054906101000a900473ffffffffffffffffffffffffffffffffffffffff1673ffffffffffffffffffffffffffffffffffffffff166354c552db8360405160200180807f7175657269657300000000000000000000000000000000000000000000000000815250600701828152602001807f63616e63656c426c6f636b000000000000000000000000000000000000000000815250600b0191505060405160208183030381529060405280519060200120436040518363ffffffff167c01000000000000000000000000000000000000000000000000000000000281526004018083815260200182815260200192505050600060405180830381600087803b158015613a9257600080fd5b505af1158015613aa6573d6000803e3d6000fd5b50505050600560009054906101000a900473ffffffffffffffffffffffffffffffffffffffff1673ffffffffffffffffffffffffffffffffffffffff166354c552db8360405160200180807f7175657269657300000000000000000000000000000000000000000000000000815250600701828152602001807f737461747573000000000000000000000000000000000000000000000000000081525060060191505060405160208183030381529060405280519060200120600280811115613b6b57fe5b6040518363ffffffff167c01000000000000000000000000000000000000000000000000000000000281526004018083815260200182815260200192505050600060405180830381600087803b158015613bc457600080fd5b505af1158015613bd8573d6000803e3d6000fd5b50505050613e3d565b600560009054906101000a900473ffffffffffffffffffffffffffffffffffffffff1673ffffffffffffffffffffffffffffffffffffffff166354c552db8360405160200180807f7175657269657300000000000000000000000000000000000000000000000000815250600701828152602001807f63616e63656c426c6f636b000000000000000000000000000000000000000000815250600b019150506040516020818303038152906040528051906020012060006040518363ffffffff167c01000000000000000000000000000000000000000000000000000000000281526004018083815260200182815260200192505050600060405180830381600087803b158015613cf157600080fd5b505af1158015613d05573d6000803e3d6000fd5b50505050600560009054906101000a900473ffffffffffffffffffffffffffffffffffffffff1673ffffffffffffffffffffffffffffffffffffffff166354c552db8360405160200180807f7175657269657300000000000000000000000000000000000000000000000000815250600701828152602001807f73746174757300000000000000000000000000000000000000000000000000008152506006019150506040516020818303038152906040528051906020012060006002811115613dcb57fe5b6040518363ffffffff167c01000000000000000000000000000000000000000000000000000000000281526004018083815260200182815260200192505050600060405180830381600087803b158015613e2457600080fd5b505af1158015613e38573d6000803e3d6000fd5b505050505b5050565b613f0381604051602401808273ffffffffffffffffffffffffffffffffffffffff1673ffffffffffffffffffffffffffffffffffffffff1681526020019150506040516020818303038152906040527f2c2ecbc2000000000000000000000000000000000000000000000000000000007bffffffffffffffffffffffffffffffffffffffffffffffffffffffff19166020820180517bffffffffffffffffffffffffffffffffffffffffffffffffffffffff83818316178352505050506149ee565b50565b61400d8282604051602401808315151515815260200180602001828103825283818151815260200191508051906020019080838360005b83811015613f58578082015181840152602081019050613f3d565b50505050905090810190601f168015613f855780820380516001836020036101000a031916815260200191505b5093505050506040516020818303038152906040527f8feac525000000000000000000000000000000000000000000000000000000007bffffffffffffffffffffffffffffffffffffffffffffffffffffffff19166020820180517bffffffffffffffffffffffffffffffffffffffffffffffffffffffff83818316178352505050506149ee565b5050565b61411482826040516024018083815260200180602001828103825283818151815260200191508051906020019080838360005b8381101561405f578082015181840152602081019050614044565b50505050905090810190601f16801561408c5780820380516001836020036101000a031916815260200191505b5093505050506040516020818303038152906040527f0fa3f345000000000000000000000000000000000000000000000000000000007bffffffffffffffffffffffffffffffffffffffffffffffffffffffff19166020820180517bffffffffffffffffffffffffffffffffffffffffffffffffffffffff83818316178352505050506149ee565b5050565b600560009054906101000a900473ffffffffffffffffffffffffffffffffffffffff1673ffffffffffffffffffffffffffffffffffffffff166354c552db8760405160200180807f7175657269657300000000000000000000000000000000000000000000000000815250600701828152602001807f70726f7669646572000000000000000000000000000000000000000000000000815250600801915050604051602081830303815290604052805190602001208773ffffffffffffffffffffffffffffffffffffffff166040518363ffffffff167c01000000000000000000000000000000000000000000000000000000000281526004018083815260200182815260200192505050600060405180830381600087803b15801561423d57600080fd5b505af1158015614251573d6000803e3d6000fd5b50505050600560009054906101000a900473ffffffffffffffffffffffffffffffffffffffff1673ffffffffffffffffffffffffffffffffffffffff166354c552db8760405160200180807f7175657269657300000000000000000000000000000000000000000000000000815250600701828152602001807f7375627363726962657200000000000000000000000000000000000000000000815250600a01915050604051602081830303815290604052805190602001208673ffffffffffffffffffffffffffffffffffffffff166040518363ffffffff167c01000000000000000000000000000000000000000000000000000000000281526004018083815260200182815260200192505050600060405180830381600087803b15801561437a57600080fd5b505af115801561438e573d6000803e3d6000fd5b50505050600560009054906101000a900473ffffffffffffffffffffffffffffffffffffffff1673ffffffffffffffffffffffffffffffffffffffff16634e91db088760405160200180807f7175657269657300000000000000000000000000000000000000000000000000815250600701828152602001807f656e64706f696e7400000000000000000000000000000000000000000000000081525060080191505060405160208183030381529060405280519060200120856040518363ffffffff167c01000000000000000000000000000000000000000000000000000000000281526004018083815260200182815260200192505050600060405180830381600087803b1580156144a157600080fd5b505af11580156144b5573d6000803e3d6000fd5b50505050600560009054906101000a900473ffffffffffffffffffffffffffffffffffffffff1673ffffffffffffffffffffffffffffffffffffffff16636e8995508760405160200180807f7175657269657300000000000000000000000000000000000000000000000000815250600701828152602001807f757365725175657279000000000000000000000000000000000000000000000081525060090191505060405160208183030381529060405280519060200120846040518363ffffffff167c01000000000000000000000000000000000000000000000000000000000281526004018083815260200180602001828103825283818151815260200191508051906020019080838360005b838110156145e05780820151818401526020810190506145c5565b50505050905090810190601f16801561460d5780820380516001836020036101000a031916815260200191505b509350505050600060405180830381600087803b15801561462d57600080fd5b505af1158015614641573d6000803e3d6000fd5b50505050600560009054906101000a900473ffffffffffffffffffffffffffffffffffffffff1673ffffffffffffffffffffffffffffffffffffffff166354c552db8760405160200180807f7175657269657300000000000000000000000000000000000000000000000000815250600701828152602001807f7374617475730000000000000000000000000000000000000000000000000000815250600601915050604051602081830303815290604052805190602001206000600281111561470757fe5b6040518363ffffffff167c01000000000000000000000000000000000000000000000000000000000281526004018083815260200182815260200192505050600060405180830381600087803b15801561476057600080fd5b505af1158015614774573d6000803e3d6000fd5b50505050600560009054906101000a900473ffffffffffffffffffffffffffffffffffffffff1673ffffffffffffffffffffffffffffffffffffffff166354c552db8760405160200180807f7175657269657300000000000000000000000000000000000000000000000000815250600701828152602001807f6f6e636861696e53756273637269626572000000000000000000000000000000815250601101915050604051602081830303815290604052805190602001208361483957600061483c565b60015b6040518363ffffffff167c0100000000000000000000000000000000000000000000000000000000028152600401808381526020018260ff16815260200192505050600060405180830381600087803b15801561489857600080fd5b505af11580156148ac573d6000803e3d6000fd5b50505050505050505050565b600560009054906101000a900473ffffffffffffffffffffffffffffffffffffffff1673ffffffffffffffffffffffffffffffffffffffff166354c552db8260405160200180807f7175657269657300000000000000000000000000000000000000000000000000815250600701828152602001807f7374617475730000000000000000000000000000000000000000000000000000815250600601915050604051602081830303815290604052805190602001206001600281111561497a57fe5b6040518363ffffffff167c01000000000000000000000000000000000000000000000000000000000281526004018083815260200182815260200192505050600060405180830381600087803b1580156149d357600080fd5b505af11580156149e7573d6000803e3d6000fd5b5050505050565b60008151905060006a636f6e736f6c652e6c6f679050602083016000808483855afa505050505056fea165627a7a723058206aa6eb0025c38227f364d4afeb73fd35b4ffb03d9195626356f5452ba55d45dc0029",
  "linkReferences": {},
  "deployedLinkReferences": {}
}